:020000040000FA
:2000000000500020AD0F0000A50F00008D0F0000A90F0000A90F0000A90F0000000000003C
:20002000000000000000000000000000A90F0000A90F000000000000A90F0000A90F0000E0
:2000400049380000A90F0000D5E10000A90F000001300000DD340000A90F0000A90F000047
:20006000A90F0000FDE10000A90F0000A90F0000A90F0000A90F0000A90F0000A90F00009A
:20008000A90F0000A90F0000A90F0000A90F0000A90F0000A90F0000A90F0000A90F0000A0
:2000A000A90F0000A90F0000A90F0000A90F0000A90F0000A90F0000A90F0000A90F000080
:2000C000A90F0000294B0000294B1B689B0702D44FF000407047F0B5452183B0002002F0FF
:2000E000EBFD0DF10601022201200DF031FB38B901A802210DF056FB4FF0004003B0F0BDBB
:200100000DF10601022200200DF022FB0028EFD0BDF806301C0A44EA0324A4B2200BADF809
:2001200004400FF0ADFE0FF05FFA0646C4F30B000F460FF0B5FE0CA3D3E9002304460D4639
:20014000304639460FF016FF02460B46204629460FF010FF10F0BEF9064910F019FB10F000
:2001600067FC03B0F0BD00BF7B14AE47E17A843F580800200000C84208B51F4B1B68032BF9
:2001800033D1431E012B30D81C4A1D4B012812881B8812D018460FF073FE0022194B0FF05D
:2001A000E9FE0022184B0FF0E5FE10F093F9174910F0EEFA10F03CFC08BD10460FF060FE6D
:2001C0000022104B0FF0D6FE09A3D3E900230FF0D1FE00220E4B0FF015FD10F07BF90B4922
:2001E00010F0D6FA10F024FC08BD4FF0004008BD0000000000A0644060080020A62A00204A
:20020000A42A00200000F03E000059400000C84200004440000000002DE9F041624B1B6824
:20022000F3B10023614C10F0380806462360A38040D1420714D002F055FE5D4D6FF009077C
:20024000286005E002F04EFE2B68FB1AC34203D501F028FF0028F5D0564B1B78DB0704D47B
:200260004FF000484046BDE8F0816821012002F023FD06224D4943200DF06AFA05460028AA
:2002800066D0002125786278A37865702270E5782279E37063790846A5706271237102F02B
:2002A0000BFD042E40D0022E5DD0012EDAD1B4F904003BE002F016FE3D4D6FF0090728606A
:2002C00005E002F00FFE2B68FB1AC34203D501F0E9FE0028F5D0374B1B78D907C0D56821DD
:2002E000012002F0E9FC314906223B200DF030FA00210546084602F0DFFC002D49D022787B
:200300006378A078E1786270237022796379202EE070A1706271237128D0102E33D0082E30
:2003200034D04FF000089DE7B4F900000FF0B8FD1BA3D3E900230FF047FF10F0CBF81E4981
:2003400010F026FA10F074FB80464046BDE8F081062116480DF026FA2946284602F0ACFC93
:200360004FF000487EE7B4F90200DFE7B4F9000001F0C2FD104910F00BFA10F059FB804647
:200380004046BDE8F081B4F90200F1E7B4F90400EEE7062105480DF005FA61E7AFF30080DA
:2003A0000000000000606040B008002088080020EC2A0020BC2A00200000C842000000006F
:2003C0002DE9F04F23F0004555EA020493B00DD0794E21F00044B4420F4682460FDD04F1FB
:2003E000404404F5801454EA0A035BD10023734CCDE90034DDE9000113B0BDE8F08F98461D
:2004000094464ED0B542EADC6B4EB54266D0002F8B468146CDE9022364DB0026BCF1000F7E
:200420000ED1654B9D4246D0644B9D4200F09780B8F1804F00F0B280614B984500F0D2833B
:20044000484659460FF034FBCDE90001BAF1000F06D1002C60D0594B27F040429A425BD059
:20046000FF0F013F56EA070300F08280554B9D4240F3B08003F104739D4240F34E84524B24
:200480009C4240F38280B8F1000F40F3828048A3D3E90023104619460FF06CFDCDE90001BE
:2004A000A8E728B1494813B0BDE8F04F0FF00CBBA542F7DCA8E704F1404303F5801353EA4D
:2004C0000A0393D0404B9C4240F39683B8F1000F5FDBDDE90234CDE900348BE7BCF1000FF1
:2004E00095D07CE73A4B9D4237DCA3F154739D4293DD2B15A3F2FF33142B40F3ED83C3F176
:2005000034032CFA03F202FA03F3634585D102F00102C2F1020681E7B8F1000F07DADDE922
:200520000023002025490FF04FFECDE90001002FBFF660AF04F1404404F5801454EA0603C7
:2005400000F04984012E7FF455AFDDE90045224605F10043CDE900234CE702265EE7B8F16A
:20056000000FC0F2558348465946CDE9000141E74A4648465B4659460FF044FB02460B46A1
:200580000FF022FECDE9000134E7B8F1000FFFF67EAF00230024CDE900342BE74A4648462F
:2005A0005B4659460FF0E6FCCDE9000122E700BF9C7500883CE4377E0000F07F0000F03F8F
:2005C0000000E03F0000E041FFFFEF3FB4120100FFFF3F43B4F5801F80F29C83DDE90001C8
:2005E0000022D14B0FF0C6FC6FF0340C0C46CDE900012315CD4AC4F31304A3F2FF3344F03C
:200600007F5503EB0C0194420D9145F4401540F37383C74B9C4240F30084002300240022D0
:20062000CDE90A34CDE910340024C24B0131CDE906230D91A5F58015DDE906ABDDE900017F
:2006400052465B46294680460FF0DCFA5246CDE908015B4640462946CDE906AB0FF0D4FA36
:2006600002460B460020B3490FF0AEFD0A4601461346CDE90E120246DDE908010FF07AFCC9
:200680000A4683469446002301460020CDE900BC00936B1043F0005303F50023CDE90412F0
:2006A000DDE900AB1919A94604460D4602460B46504659460FF05EFC02460B46DDE908017C
:2006C0000FF0A0FADDE90623CDE90801204629460FF098FA02460B46404649460FF092FA34
:2006E00052465B460FF046FC02460B46DDE908010FF088FADDE90E230FF03CFCDDE904455A
:20070000CDE9060122462B46204629460FF032FC73A3D3E9002304460D460FF02BFC72A374
:20072000D3E900230FF070FA22462B460FF022FC6FA3D3E900230FF067FA22462B460FF052
:2007400019FC6DA3D3E900230FF05EFA22462B460FF010FC6AA3D3E900230FF055FA2246B8
:200760002B460FF007FC68A3D3E900230FF04CFA2246804689462B46204629460FF0FAFBA0
:2007800002460B46404649460FF0F4FB04460D46DDE9040152465B460FF036FADDE90623FE
:2007A0000FF0E8FB22462B460FF02EFA5246804689465B46504659460FF0DCFB00225E4BB3
:2007C000CDE908010FF020FA42464B460FF01CFA00980D4604462B462246504659460FF0D1
:2007E000C9FB002282468B46534B204629460FF009FADDE908230FF005FA02460B464046F7
:2008000049460FF0FFF9DDE904230FF0B3FB224680468946DDE906012B460FF0ABFB024690
:200820000B46404649460FF0EFF98046894602460B46504659460FF0E7F935A3D3E9002372
:2008400000980D4604460FF095FB5246CDE904015B46204629460FF0D5F902460B4640461F
:2008600049460FF0CFF92CA3D3E900230FF082FB2BA3D3E9002380468946204629460FF0E2
:2008800079FB02460B46404649460FF0BDF9DDE910230FF0B9F980460D9889460FF000FBA3
:2008A00082468B46DDE9040142464B460FF0ACF9DDE90A230FF0A8F952465B460FF0A4F9AF
:2008C000009852465B4604460D460FF09BF9DDE90A230FF097F9DDE904232FE0AFF3008077
:2008E000EF4E454A287ECA3F65DBC9934A86CD3F01411DA96074D13F4D268F515555D53F08
:20090000FFAB6FDBB66DDB3F033333333333E33F000000E009C7EE3FFD033ADC09C7EE3F92
:20092000F5015B14E02F3EBE000040438E98030079B60B000000F03F000008400FF062F990
:200940000B460246494640460FF05CF90022013E56EA070314BFDA4BDA4B8B46CDE904231F
:20096000DDE9021200230E461746CDE900670093DDE9006782463B460846114632460FF087
:2009800041F922462B460FF0F5FADDE9022380468946504659460FF0EDFA02460B4640469C
:2009A00049460FF031F98046894632463B4620462946CDE902890FF0DDFA0B460246064620
:2009C0000F46404649460FF01FF9BF4B044699420D468A4640F3268101F13F4303F5E0031B
:2009E000034340F0FE81A2A3D3E90023DDE902010FF00AF93246804689463B4620462946B0
:200A00000FF000F902460B46404649460FF042FD002840F0E681A8464FF4801300204FEA16
:200A20002852A2F2FE3213415344C3F30A52A74DA2F2FF321541C3F3130423EA0501C2F1D9
:200A4000140B44F48014BAF1000F02460B4644FA0BFB30463946B8BFCBF1000B0FF0D2F818
:200A600006460F46DDE9020132463B460FF0CCF80D464FEA0B5A00247FA3D3E900232046D4
:200A800029460FF077FA3246804689463B46204629460FF0B7F802460B46DDE902010FF005
:200AA000B1F877A3D3E900230FF064FA76A3D3E9002306460F46204629460FF05BFA02462D
:200AC0000B46304639460FF09FF806460F4602460B46404649460FF097F842464B460446FA
:200AE0000D460FF08FF802460B46304639460FF089F82246804689462B46204629460FF0CD
:200B000039FA63A3D3E9002306460F460FF032FA61A3D3E900230FF075F832463B460FF0AA
:200B200029FA5FA3D3E900230FF06EF832463B460FF020FA5CA3D3E900230FF063F832468A
:200B40003B460FF017FA5AA3D3E900230FF05CF832463B460FF00EFA02460B462046294667
:200B60000FF050F806460F4602460B46204629460FF000FA0022CDE900014FF080433046D5
:200B800039460FF03FF802460B46DDE900010FF01BFB424606460F464B46204629460FF09D
:200BA000E9F942464B460FF02FF802460B46304639460FF027F822462B460FF023F802462D
:200BC0000B4600203E490FF01DF88A44BAF5801FC0F235815146DDE904230FF0CBF9CDE988
:200BE000000107E4002FFFF62BAC4846594613B0BDE8F04F0EF09ABEB8F1000FBFF6C9AC02
:200C0000DDE90234009304F100430193FFF7F2BB4A465B4600202A490FF0D6FACDE900018C
:200C2000FFF7E8BB2A4B21F00048984540F3E980284B0B4403430AD132463B460EF0E2FF19
:200C4000DDE902230FF01CFC00283FF4E5AE1AA3D3E90023DDE904010FF08CF916A3D3E944
:200C600000230FF087F9CDE90001FFF7C3BB00BFFE822B654715973C00000000432EE63F13
:200C8000EF39FAFE422EE63F396CA80C615C20BED0A4BE726937663EF16BD2C541BDBB3ED9
:200CA0002CDE25AF6A56113F93BDBE166CC1663F3E5555555555C53F59F3F8C21F6EA5012C
:200CC0000000F03F0000F0BFFFFF8F40FFFF0F00FFCB904000346F3FBCF1000F40F09A80DA
:200CE000C3F1140345FA03F202FA03F3AB4200F0AA806646FFF798BB002300241A462346F7
:200D0000CDE90A23CDE910230022614B0024CDE9062391E44FF0000C6BE45E4B9C427FF72A
:200D200034AC5B4B9C423FF7AEABDDE900010022574B0EF067FF48A3D3E9002304460D466A
:200D40000FF018F946A3D3E9002382468B46204629460FF00FF90022CDE900014E4B20466E
:200D600029460FF007F902460B463FA1D1E900010EF048FF22462B460FF0FCF802460B4627
:200D8000002046490EF03EFF2246804689462B46204629460FF0EEF802460B464046494693
:200DA0000FF0E8F832A3D3E900230FF0E3F802460B46DDE900010EF025FF02460B468046E5
:200DC0008946504659460EF01FFF00200D46044652465B46B2E5DDE9002310461946FFF7D2
:200DE000CBBB25A3D3E90023DDE904010FF0C2F821A3D3E900230FF0BDF8CDE90001FFF73E
:200E0000F9BA264B98453FF707AEDDE900239246934630E60026FFF713BB19A3D3E90023B1
:200E2000CDE90A2318A3D3E90023CDE9102300221B4B4FF48024CDE90623FFF7FDBB5A46B0
:200E400000F032F8C7E602F00102C2F10206FFF7EBBA00BFAFF30080000000604715F73FAD
:200E600044DF5DF80BAE543E555555555555D53FFE822B654715F73F9C7500883CE4377E8D
:200E80000000004003B8E23F06D0CF43EBFD4C3E0000F03FFEFFEF3F0000D03F0000E03F54
:200EA0000000F83F00000000F8B5C1F30A5304460D460E4617460BBB034621F00046334313
:200EC0001BD02F4B00220FF055F82E4B04469F420D4637DB0E46C1F30A53363B40F2FE72BE
:200EE0003B4493421ADC002B11DD26F0FF4626F4E00646EA035520462946F8BD40F2FF727F
:200F00009342EBD102460B460EF07EFEF8BD13F1350F1DDA4CF250339F420CDD14A1D1E93F
:200F2000000122462B460EF061FE11A3D3E900230FF020F8F8BD22460FA1D1E900012B46D7
:200F40000EF054FE0CA3D3E900230FF013F8F8BD26F0FF4626F4E006363346EA0355204642
:200F600029460022084B0FF005F8F8BDAFF300809C7500883CE4377E59F3F8C21F6EA50113
:200F800000005043B03CFFFF0000903C044B1A68B2F5806F03D01B689B0500D4FEE770473B
:200FA00028ED00E0FEE700BFFEE700BF08B50AF02FFB0F4B0F4A93420CD2181D0332121A17
:200FC00022F003020C49024451F8040B43F8040B9342F9D109480A494FF000028842B8BFF8
:200FE00040F8042BFADB00F043FAFFF7CFFF08BD00000020F206002060160100F806002032
:201000007A350020024B01219B688120184700BFD0120100024B01219B688120184700BFBC
:2010200000130100024B01219B688120184700BF18130100024B01219B688120184700BF0E
:20104000F012010038B5041E0D4611DB64220B4BA3FB0413590902FB114225B9BDE8384001
:20106000074803F0A7BD0748BDE8384003F0A2BD2D2002F05DF86442E8E700BF1F85EB5164
:20108000B4100100A81001002DE9F04105880446ADB140F255139D420CD1882916465DD0C6
:2010A000B64B1B788B4243D040F2551301202380BDE8F081002323800320BDE8F081B04851
:2010C00002F03EF8AF4B01219B6881209847AE4B01219B68812098472846AC4902F072FDE7
:2010E00002F092FD4FF42061A94804F0D5FBA94B3F219D688120A847A74B01219B68812055
:201100009847A64B01219B6881209847A44B01219B6881209847A34B01219B688120984733
:201120003F218120A84740F2551301202380BFE79D4B9A4222D155680020A84706460120CB
:20114000A84731460246994803F034FD0120A84780280FDC012000F06DFBA5E78C4B9A4281
:20116000A2D1022000F066FB30464FF4206104F093FB99E78E4801F0E3FFEBE78D4B9A421E
:2011800039D0531C3DD07F4B9A423ED0854DAA4242D0834DAA4268D07F4B9A4200F08980B3
:2011A0007E4B9A4200F0AE807A4B9A427FF47CAF814A8248136801331946136003F0FAFC2E
:2011C00075682020A8470021FFF73CFF2C2001F0AFFF1020A8470021FFF734FF2C2001F020
:2011E000A7FF0820A8470121FFF72CFFB3683F218120984758E7032000F008FB01F094FF1B
:2012000052E76F4801F09CFF4EE701F025F9002873D001F079F947E703F092FB664FC0F32A
:201220000A063B686A6801333B6002209047B0F1004F06F5A06600F0918064236149C21765
:2012400081FB00C1C2EB611203FB120339685E4803F0B0FCAB6800218120984731460023EA
:201260005A4A5B4804F0FCF91EE703F069FB524EC0F30A0133686A6801333360002001F53A
:20128000A0659047B0F1004F6CD064234D49C21781FB0071C2EB611203FB120331684D4802
:2012A00003F088FC294600234B4A4C4804F0D8F9FAE603F045FB404FC0F30A053B68726856
:2012C00001333B6002209047B0F1004F05F5A0654CD064233B49C21781FB0061C2EB61125A
:2012E00003FB120339683E4803F064FC294600233C4A3D4804F0B4F9D6E64FF47A7001F049
:20130000B1F8D1E603F01CFBD6F80480C0F30A050320C047B0F1004F05F5A0652AD0264FC7
:2013200002203B6801333B60C0474FF47A732F49C21781FB00C1C2EBA11203FB1203396840
:201340002B4803F037FCB36800218120984729460023284A284804F083F9A5E6274801F069
:20136000EFFE77E7264801F0EBFE9BE7254801F0E7FEBBE7244801F0E3FE95E676350020EF
:20138000BC1001007013010088130100C8100100440700203013010018130100F0120100A9
:2013A00000130100D012010048130100DC1001000C1101005813010040070020CC1101001E
:2013C000201101001F85EB5124110100051000002007002050110100151000007407002047
:2013E000781101002510000054070020D34D6210BC1101003510000094070020341101000D
:201400006011010088110100A4110100F0B5002706463C463D4683B0304600F0F7F90195CE
:20142000019B9C4206DD00BF019B01330193019BA342F8DB304600F0F3F90195019BC4F59B
:20144000C8749C4206DD00BF019B01330193019BA342F8DB0137B7F5487F06D0B7F5C87FA4
:20146000CCBFC7F548743C46D6E703B0F0BD00BF2DE9F041744C86B02368012173485B68A3
:2014800098470122236811461B687048984709F093FF02F0F1F902F089F901F0B5F802F0E3
:2014A000C1F900F0A9F9012369496A486A4A03600B6018461368FFF7A9FF09F081FF01F0F5
:2014C00013FD01F077FC04F0ABFB01F0DDFD04F0F7FA41F2342003F039FA01F0CBFF04F0F2
:2014E00041FC5E4801F02CFE4BF2AC7200215C4803F060FB5B4801F023FE09F0C7FE5A4C67
:201500005A4D10F0040F14BF27462F4609F0C6FE01280CBF26462E4609F0B8FE10F0020F0B
:2015200014BFA046A84609F0B1FE10F0080F08BF2C4632464346009439464D4803F03AFB3B
:2015400000214C4804F098FA04F050F804F0E6F80220FFF75BFF484803F02CFB474B484C00
:20156000186801F0EDFD474803F024FB464B186801F0E6FD454803F01DFB2168444803F0EA
:2015800019FBE469A04720B1A0470146414803F011FB00260A2001F0CBFD0AF0F3FF04A8DB
:2015A00008213D4D3D4F039601F002FE9DF816209DF8174004AB03CB44EA0224D7F82C805F
:2015C0002860696002204AF6CD31C04721460320C04719210120C047082204A97B6B0B2078
:2015E0009847BB6A03A90120984703992C4803F0E1FA2C4B21462C481C8003F0DBFA2B4B31
:201600006A6829685A6019600BF030F93146284804F032FA0220FFF7F9FE3146254804F022
:201620002BFA254803F08CFF01F03CFD0120FFF7EDFE04F05FFA044601F068FD14F0FF0F6F
:20164000F7D101F07FFFF4E7D801001000400340080009400C4009402C200940F01101008F
:2016600018120100C8100100E8110100EC11010030120100780500206412010030150100D1
:20168000A01501006C12010070150100741201007C1201008012010040350020D01301006D
:2016A000A4120100A02A0020B8120100702C0020AC05002038040020A01001002DE9F041DD
:2016C00004880646772C2FD07E2C26D024B1002303203380BDE8F08104F0C6F92D4F2E4B64
:2016E0002E4D3A6818702C6082B12346A0462C4C04F8038093680021802098472B680133DE
:2017000057F823202B60002AF2D1DAB2254B1A70772333800120BDE8F0811F4B1B788B42EB
:201720001CD00120BDE8F081DFF878801B4D98F800201D4F00233B602B60002AE8D0184CA4
:20174000E256002A18DB2B6898F80020013393422B60F5DB3B68002BECD1D9E70F4D104C8A
:20176000DFF84080104F2B683A68E15C013201F07F01E1543A60E7E7064A074952F8232093
:201780000978002004F012FA0028ECD17E23012033809FE74804002076350020B8070020B2
:2017A000E02A0020B62A0020B407002010B40E4B1C78B4B10D4A136898424FF0000304D14B
:2017C00006E052F8041F884202D00133A342F8D107490848CA5C62F07F02CA5410BC04F0C1
:2017E00011BA2346F4E700BFB62A002048040020E02A00203804002008B500F025F800223D
:20180000014B1A7008BD00BFB72A0020034A137803431846137000F033B800BFB72A0020D3
:20182000034A137823EA00031846137000F028B8B72A0020034A137843401846137000F0E2
:201840001FB800BFB72A00200A4B1A6882B9012210B5094C1A6023680A20DB6B98472368C3
:201860000F20DB6B98474FF40442044B1A6010BD704700BFBC070020B4010010A0200240D5
:201880004FF40442084B094908701A60C20744BF4FF4806243F8102C830703D54FF40042D9
:2018A000034B1A60704700BFA0200240B82A002090200240813801289ABF024B18680020CC
:2018C000704700BFDC0700200322024B02481A60FFF76CBFDC070020D012010010B5044643
:2018E00082B07721002001F0E7F94CB98DF8074001220DF10701F4200BF038FF02B010BD6E
:2019000025238DF80730F3E730B5802885B016D0812803D01D4B186805B030BD1B4C20684C
:201920000028F9D029B30120FFF7D8FF18480023184A032103F094FE02202060ECE70125C3
:20194000124C77210020256001F0B6F91C22124988200BF0FDFEB62304A901F8013D2A46E8
:20196000E0200BF003FF0020FFF7B8FF206805B030BD0748019103F0B7FE01990846FFF70C
:20198000ADFF012318462360C6E700BFDC070020E8070020C9180000C0070020534B1B682F
:2019A000032B40F0A080431E012B00F29C8000232DE9F0414E4D772104462B601846AB8013
:2019C00001F07AF929460622F7200BF0C1FE002800F081802A794749E8786B79120142EA6C
:2019E0000032088842EA1312C0EB121303FB03F3B1F904604000B1F902701B13C0EBD202F9
:201A000006FB03F307FB02F29B1303EBE2234FEA630CACF57A4C4FEAAC0707FB07F7B1F993
:201A20000820B1F90A6078130CFB02F200FB06F0521002EBE0029214C88802F5004200FB98
:201A400002F0C0138B612A7895F801E0AE783AD0B1F90E80B1F910500CFB08FCFF124FEAFE
:201A60004C0C05FB07CCB1F90C70360946EA0E163F0446EA023607EBAC071F4D06EB273678
:201A800005FB06F505F1434505F5A005002DB3BFB5FBF0F06D00B5FBF0F04000C20802FBFB
:201AA00002F5B1F91420B1F9166087086D0B02FB07F206FB05F5B1F91210521302EB2532C4
:201AC0000A4400EB2210012C03D103EB830080300012BDE8F081284606210BF063FE4FF021
:201AE0000040BDE8F0814FF000407047DC070020E0070020C0070020CBF3FFFF81380128CB
:201B00009ABF024B18680020704700BF100800200322024B02481A60FFF748BE1008002067
:201B2000F012010010B504464421002001F0C4F8002C0CBF002410240222044B10461C80AD
:201B40001946BDE810400BF011BE00BFA22A002010B5802882B016D0812803D01D4B1868D3
:201B600002B010BD1B4C20680028F9D029B30120FFF7D8FF18480023184A242103F070FDB2
:201B800002202060ECE7164C012023689B6B984723684FF480419B690120984723684FF080
:201BA0008041DB69012098470020FFF7BBFF01231846084A136002B010BD0748019103F0B6
:201BC00093FD01990846FFF7ADFF012318462360C6E700BF1008002018080020111B0000D6
:201BE000B401001038B5354B1B68032B5AD1820758D003280BD0012805D0022852D1304B5A
:201C00001B68184638BD2F4B1B68184638BD2E4D44210446002001F04FF829460222042065
:201C20000BF096FD00283BD02A88130A43EA02239BB22B805B0433D5244D0222294601203E
:201C40000BF086FD88BB214804210BF0ABFD00202C786B78A978EA7843EA042442EA0122C4
:201C600000B390080EF040FD4FF074510EF090FD17490EF08DFD0EF0DBFE124B104D18605E
:201C8000A0080EF031FD4FF074510EF081FD10490EF07EFD0EF0CCFE01232860184638BD57
:201CA0000A4DD0E74FF00043ABE702222046A9180BF04EFD0028CBD1C5E700BF100800200A
:201CC0000808002014080020A22A00200C08002000007A44014B1868704700BF58080020F8
:201CE00070B506460E4C82B045210020256800F0E3FF76B94FF4865305F002052560ADF891
:201D0000063002220DF1060101200BF02FFD02B070BD41F2C2020123ADF806202360F0E7FD
:201D20005808002000B5452183B0002000F0C4FF02220DF1060101200BF00AFDBDF90630CA
:201D4000002B08DB0023084A1021084803F088FC03B05DF804FB0648FFF728FD0222054B24
:201D60001A6003B05DF804FB251D0000380800200013010058080020802810B50DD08128B9
:201D800009D10C4671B90D4803F0AEFC2046FFF7A7FF204610BD002010BD0020FFF7A0FF24
:201DA000002010BD0120FFF79BFF0023044A1021024803F055FC012010BD00BF3808002048
:201DC000251D0000813801289ABF024B18680020704700BF60080020032138B5124C134ACF
:201DE00023781160CBB1124D4321002000F064FF2846042100F010FE00212070084600F0A5
:201E00005BFF28886988020A42EA0022094D0B0A094843EA01232A8003800123074823702D
:201E2000BDE83840FFF7C2BCB92A0020600800205C080020A62A0020A42A002018130100F8
:201E400030B5802883B023D0812803D0234B186803B030BD214C20680028F9D0002936D0B0
:201E60001F4D2B785BB14321002000F025FF002000F098FD00212870084600F01DFF194896
:201E80000023194A032103F0EBFB02202060DFE70024164B164A174D20461C604321148034
:201EA0002C8000F009FF0222102302A921F8023D10460BF05BFC0A4B21461870204600F0E2
:201EC000FBFE01231846054A136003B030BD054803F00AFC012318462360B9E760080020B2
:201EE000B92A002064080020D91D00005C080020A42A0020A62A002008B5174B1B78032B1B
:201F000028D8DFE803F0151E0C020DF0C9FF00224FF07D530EF02EF80EF0DCFA08BD0DF016
:201F2000BFFF00220D4B0EF025F80EF0D3FA08BD0DF0B6FF00220A4B0EF01CF80EF0CAFAC1
:201F400008BD0DF0ADFF0022064B0EF013F80EF0C1FA08BD002008BDBA2A00200000303FC1
:201F60000000103F0000203F813801289ABF024B18680020704700BFB00800200222024BCC
:201F800002481A60FFF712BCB00800203013010010B56821012000F08FFE3F23094C0122D7
:201FA00021466C2023700BF0E1FB4F23214601226B2023700BF0DAFBBDE810400021084676
:201FC00000F07ABEBE2A0020802838B50BD0812806D111F03F0141D1294B1B68DB0429D4BB
:201FE000284B186838BD284C072023689B6B984723684FF400519B690720984723684FF0FB
:202000008041DB690720984723680C20DB6B984723684FF440729B6A4FF480610C20984725
:202020004FF4805400221948194B164904601A60086838BD164B1748196003F055FBFFF78E
:20204000A7FF154A136813F00103FBD14FF480500C4A0E4913600860106838BD4FF4805012
:2020600001240B4B0D4A074D1960106000230C4A082108482C6003F0F3FA2C60204638BD0C
:2020800080200240B0080020B4010010A020024084080020900800200428004090200240FD
:2020A000CD20000010B5084C6821012000F004FE214601223A200BF04BFB0021084600F0FA
:2020C000FBFD207810BD00BFBC2A00202DE9F041364C236813F0380F29D1354D03F03F048E
:2020E0002E7866B9002C3CD12C70FFF751FFBDE8F04100232F4A05212F4803F0B1BAE3B2FE
:202100002B70002CF1D02D4FDB43682101203B7000F0D2FD012229496C200BF027FB00212A
:20212000084600F0C9FD264809F04EF9DFE7254E3278002AD1D00025234F682101203D7051
:2021400000F0BAFD394601221C200BF00FFB07462946284600F0B0FD2368002FBDD0357042
:20216000BBE76821012000F0A7FD0923134F012239466B203B700BF0F9FA3F233946012227
:202180006C203B700BF0F2FA01220F491C202E700BF0ECFA394601223A200BF0D9FA3146AA
:2021A000304600F089FDE3B22B70ADE784080020BD2A00207D1F000090080020BE2A002060
:2021C00080380100BA2A0020BB2A00208138012808D808B5044B00201B685B689847C0F377
:2021E000804008BD00207047B40100108138012808D808B5044B04201B685B689847C0F3F4
:20220000804008BD00207047B401001028B1012806BF054BD86800207047044B1868C0439D
:2022200000F00100704700BFB4080020C020024028B1012806BF054BD86800207047044BBC
:2022400018686FEA101000F001007047C4080020C0200240802870B514460AD0812807D14D
:20226000E1B9BDE87040184B10461B685B6B184770BD0123144D154993402A680B60936B30
:20228000204698472B6820460021114A1B689847E0B21049BDE8704001F0AEBA01230A4D0E
:2022A0000A4993402A680B60936B204698472B6820461B68064A002198472B682046BDE84E
:2022C00070401B6B184700BFB4010010E020024000400720F122000008B50022FFF7BAFF9B
:2022E000012008BD08B50422FFF7B4FF012008BD38B518B10428044614D038BD1D4C2046B2
:2023000003F0D0FC0028F8D00421204603F0B6FC194B1D6815F001051DD100F099FDC4E9C9
:20232000020538BD154D284603F0BCFC0028E4D02146284603F0A2FC0F4B1C68C4F300143B
:202340009CB100F085FDAB68C31AEB600C48BDE83840FFF72BBA00F07BFDA368C31AE360A4
:202360000848BDE83840FFF721BA00F071FDC5E9020438BDB4080020C0200240C40800202E
:202380005813010048130100024B1868C0F3C000704700BFC02002408138012808D808B51E
:2023A000044B03201B685B689847C0F3804008BD00207047B4010010802810B509D08128C3
:2023C00005D1134B1B68F1B95B6B03209847012010BD0F4C032023685B6B984708210D4BB7
:2023E0000D4A1B681160DB694FF4A060984723680A4A1B680021032098470949032001F041
:20240000FBF9012010BD1B6B03209847012010BDB4010010B8010010E02002400020032051
:202420002524000008B5074803F03CFC00B908BD0548FFF7BBF9BDE808404021014803F01D
:202440001DBC00BFD4080020701301000022014B1A707047BF2A0020014B1878704700BF5A
:20246000BF2A002038B51D4C054623680020DB699847236800205B6A984723680020DB6AA5
:2024800098470121164B174A196013689B07FCD5154B4FF4C0421B6817211B68152098471B
:2024A00040F20A2001221149114B086011481A7001F070F9104B002D1A6822F001021A60A9
:2024C0000BDD0E480E4A90FBF5F00E4C4108206011601A6842F001021A6038BDB801001073
:2024E0002820086028200840B401001004000140BF2A00206C0400200C000140006CDC0262
:20250000300001402800014070B50024144B15481C7001F045F9144A144D1368296823F043
:20252000010313600B6A204698472B6820469B6A98472B6820461B6B984701210C4B0D4A5F
:20254000196013689B07FCD50B4C152023689B6B984723680021BDE870401B6A15201847FE
:20256000BF2A00206C0400200C000140B80100102820086028200840B401001010B5064C90
:20258000042023685B699847236804205B6B98470128F9D110BD00BFB8010010FFF7EEBFAA
:2025A000032801D000F012B908B5FFF7ADFF104B00219B68812098470E4B00219B688120E8
:2025C00098470D4B00219B68812098470B4B00219B68812098470A4B00219B68812098472D
:2025E0004FF48052074B1A60BDE8084000F0EEB8D012010000130100F01201001813010051
:2026000030130100A020024070B508F0D5FE0646FFF7B4FF3A4B4FF4A0601B68DB69984721
:202620000121384B384A196013689B07FCD54FF40055364C00F09CF8FFF708FF0BF082F9FB
:20264000334801F0A7F8236819209B6B9847236829469B6919209847236818209B6B984708
:20266000236829469B6918209847236817209B6B9847236829469B691720984723681B20C4
:202680009B6B9847236829469B691B20984723681E209B6B984723684FF480419B691E20BE
:2026A000984723680D20DB6B98471A4A2368156000214FF480729B6A0D20984723680220E6
:2026C0009B6B9847236829469B690220984723680B209B6B9847236829469B690B20984773
:2026E00023681D209B6B9847236829469B691D20984706B170BDBDE8704008F061BE00BF04
:20270000B80100102820086028200840B401001080040020A020024010B5094B09481B6858
:202720005B68984710F00C0F044605D00422064B02201A6008F048FEB4FA84F0400910BD34
:20274000AC010010002000400428004008B5064B02201B685B6B9847012809BF034B002039
:20276000186800F0010008BDB80100106020084070B5104D02202B685B6998472B68022003
:202780005B6B984701280446F8D12B684FF44070DB699847084B094A1C6013689B07FCD59F
:2027A000BDE87040064B01221B6806491B680648184700BFB8010010282008602820084086
:2027C000AC010010006CDC0200200040FF22214B10B51A70FFF7BAFF20B100231E491F4A43
:2027E0000B6013601E4B4FF440701B681B6A984701211C4B1C4A196013689B07FCD51B4CFB
:20280000082023689B6B984723684FF400519B6908209847236809209B6B984723684FF48F
:2028200000519B6909209847236805209B6B984723684FF480419B6905209847236806205E
:202840009B6B984723684FF48041BDE810409B6906201847EE0600200428004010040542AB
:20286000B80100102820086028200840B40100102DE9F84F0746474B47481B78474A5B0040
:2028800003603B780E46136000F02CFB00F5CC54434D193404E000F025FB001B002854DAED
:2028A0002B685B06F7D4032302202B6008F08CFD00F018FB00F5CC54394D193404E000F046
:2028C00011FB001B002840DA2B68D807F7D4FFF723FF012E034659D9B8B30124A346DFF840
:2028E000BCA0DFF8BC8006F1FF39631E3B4413F8012FA145CAF800202BD80134B442F6D340
:202900000523274C0220236008F05EFD00F0EAFA00F5CC55193504E000F0E4FA401B0028B7
:2029200013DA2368DA07F7D4FFF7F6FE044600F0D9FA1B4E00F5CC55193533685B0605D5D9
:2029400000F0D0FA401B0028F7DB00242046BDE8F88F0220C8F800B008F036FD00F0C2FA49
:2029600000F5CC55193504E000F0BCFA401B0028EBDAD8F80030D907F6D4FFF7CDFE013481
:20298000B442034602D20028AFD1DEE7002BDCD0B6E700BFC02A00200028004008280040A2
:2029A0000428004038B5184B18491B78184A5B000B60106000F096FA00F5CC54154D19348B
:2029C00004E000F08FFA001B00281ADA2B685A06F7D4072302202B6008F0F6FC00F082FA78
:2029E00000F5CC540B4D193404E000F07BFA001B002806DA2B68DB07F7D4BDE83840FFF75E
:202A00008BBE002038BD00BFC02A00200028004008280040042800402DE9F84F394B3A4AE6
:202A20001B7883465B0043F0010313600F4600F059FA00F5CC55354E193504E000F052FA96
:202A4000401B002822DA346814F04004F6D10B230220336008F0B8FC41F699182B4D07F165
:202A6000FF3A5FFA84F9D1451EDA00F03BFA00EB080604E000F036FA801B002806DA2B68E1
:202A8000D907F7D4FFF748FE013418B900242046BDE8F88F09231E4A022012680BF8092037
:202AA0002B6008F091FCDCE70523184C0220236008F08AFC00F016FA00F5CC55193504E04C
:202AC00000F010FA401B0028E0DA2368DA07F7D4FFF722FE04460028D8D00D4B5F441B68DA
:202AE0000A4E07F8013C00F0FDF900F5CC55193533685B06CBD500F0F5F9401B0028F7DB29
:202B0000C4E700BFC02A00200028004004280040082800402DE9F04F0546634F634E38784A
:202B20000C46400030602878614983B008609046994600F0D7F900F5CC56DFF878A11936C3
:202B400004E000F0CFF9801B002847DADAF800305A06F6D403230220CAF8003008F034FC67
:202B600000F0C0F900F5CC56DFF848A1193604E000F0B8F9801B002830DADAF80030DB0750
:202B8000F6D4FFF7C9FD012C03462CD930B34FF0010B2B19DFF818A1464E01935D4415F85C
:202BA000013B0220CAF80030C6F800B008F00CFC00F098F900F5CC54193404E000F092F915
:202BC000001B00280ADA3368D807F7D4FFF7A4FD019A0346954206D00028E0D100242046FE
:202BE00003B0BDE8F08F002BF8D00B223B782F495B00304C43F001030B600220226008F09E
:202C0000E3FB41F69917A8F10206DFF8A4B04E4408F1FF3A564519D000F064F9C51904E0CC
:202C200000F060F9401B0028D8DA2368D907F7D4FFF772FD0028D1D00923DBF80020022071
:202C40000AF8012F236008F0BFFBE3E70523194C0220236008F0B8FB00F044F900F5CC5523
:202C6000193504E000F03EF9401B0028B6DA2368DA07F7D4FFF750FD04460028AED00C4B27
:202C8000C8441B680B4E08F8013C00F02BF900F5CC55193533685B06A1D500F023F9401BBE
:202CA0000028F7DB9AE700BFC02A00200028004008280040042800402E4B10B5044619707B
:202CC000FFF744FD002830D02B4B1A78A24232D000222A482A491C7002600A601B78002B8A
:202CE0002AD1284C4FF4C041236805209B69984723684FF4C0419B69062098472368062203
:202D0000DB6C052120489847236808209B6B9847236809209B6B9847BDE810401B4B012250
:202D20001B681B491B6818481847FFF721FD124B1A78A242CCD110BD012BEDD1114C4FF48F
:202D4000C041236808209B69984723684FF4C0419B6909209847236809220821DB6C0A4889
:202D60009847236805209B6B9847236806209B6B9847D1E7C02A0020EE0600200428004007
:202D800010040542B401001000200040AC010010006CDC0210B5064C042023685B69984743
:202DA000236804205B6B98470128F9D110BD00BFB80100100020002170B51B4A1B4BC2E99B
:202DC00000011B6804205B6B9847012801D0FFF7E1FF164B00201B68DB6998470121144B2E
:202DE000144A196013689B07FCD5134A13491368096823F4807323F00103114C13600B6805
:202E00002046104998470423312640F22120012223600D4D0D4903F1864303F510132E6067
:202E200008601A6070BD00BFF8060020B801001028200860282008400C000140C801001077
:202E400000000140002100043C0001400800014010B40949094A0B68146808688342FAD1EE
:202E6000DA010023064902EB5462C1E9002310BCD1E90001704700BF082009400C200940B2
:202E8000F806002010B50B490B4A0B68146808688342FAD1DA010023084902EB5462C1E91B
:202EA000002302F021FD00B910BDBDE8104002F0EDBC00BF082009400C200940F806002006
:202EC00010B508F079FA034B1C6808B908F078FA204610BD08200940704700BF0146012043
:202EE00000F052B808F0C0B92DE9F04108F064FA0124002580464FF480314FF480701A4E2B
:202F00001A4B1B4F32683D601C60186019601368284623219847336820461B68242198478A
:202F2000336825211B6802209847124A1249136843F4E02313600D6008F096F90F4B1049A6
:202F4000104A1B6800F50070086014603C601B6914209847B8F1000F01D0BDE8F081BDE8DC
:202F6000F04108F02DBA00BF8401001004200940000024430020094008200940B00100107E
:202F80001C200940A0022443431E012B10B419D9042801D010BC704700231A4610F0040059
:202FA0001CBF0E4C216013B101210D4B196012B101220C4B1A600028ECD001220A4B1A6017
:202FC00010BC7047012803BF084A03461160002310F00202E2D0064C2160DFE7202009407C
:202FE00080022443A0022443C0022443182009401C200940014B1868704700BFDC0800206A
:2030000008B5FFF76FFF184B1860FFF73BFF174B1B686BB9164B1B68E3B9164B1B6833B133
:2030200000204FF480321449144B08601A6008BD4FF48072114B1A6008F016F900F20520EF
:203040000F4B20F4FF7020F001001860084B1B68002BE2D0002001220A49084B08601A608C
:2030600002F0F8FDD9E700BFDC080020A000244380002443C0002443C0022443042009403B
:203080001C20094080022443012203490348044B08601A60704700BF00000840FFFF0F000C
:2030A000000C084038B508F087F9124AB0FA80F01368012B0BD001230F4C104D1049114ACF
:2030C000400925600B601360C3070FD438BD0E4C09490A4D146040090D60094C094940F09E
:2030E000020023600B601360C307EFD5BDE8384008F066B9000C084000000840FFFF0F0002
:203100000C0008400401004351E5CC1A012203490348044B08601A60704700BF000008404E
:20312000FFFF0F000C00084008B5FFF7BBFFFEE710B50446C0B200F0B1F9204610BD00BFCF
:2031400070B506460024451E04E015F8010F00F0A5F9013430460DF06DFFA042F5D80A20FB
:2031600000F09CF900F0AEF90128FBD0204670BDF8B50646B0B10078B0B1B9B10131751850
:20318000741C04E014F8010B30B1AC4204D000F085F9A71B002CF5D100F094F90128FBD06D
:2031A0003846F8BD0746F7E70746F5E70F46F3E710B40B4B0B4C1A780133FF2A0DD1A34236
:2031C000F9D1094A39B11144013801390B78914200F8013FF9D110BC7047014AF2E700BF62
:2031E000C8FF0100D0FF0100F012005080280BD0812806D141B9084A084B1160084619600B
:203200007047064B18687047012303200249034A086018461360704700500940E0080020FF
:20322000813801289ABF024B18680020704700BFE0080020064B1B6833B1012806D0022807
:2032400012BF0023034B1B681846704707F0F4BFE00800202850094038B50C4D02202B6826
:203260005B6998472B6802205B6B984701280446F8D12B684FF40070DB699847044B054A0E
:203280001C6013689B07FCD538BD00BFB801001028200860282008402DE9F04340F2F27525
:2032A000DFF8DC8083B0FFF7D7FFD8F800302A4EDB682A4898473368294C5B6915209847E8
:2032C0002368DFF8C090274F23F4FE63D9F8002023F0020323603D60D36B1D2098474FF08C
:2032E000FF334FF000502049D9F8002008600093D2F840901C211D221848C847D8F8002043
:203300006023D2F8048019494FF4E1321348C047142140F2011340F2013C154A15481160AB
:203320000268154942F0100202600868134A002818BF634613603D600B6853B11520236863
:20334000326843F050032360136903B0BDE8F043184703B0BDE8F083B00100100010004088
:20336000381000404410004090200240006CDC02341000402C100040E40800203010004069
:20338000D0010010B401001008B5064B02201B685B6B9847012809BF034B0020186800F060
:2033A000010008BDB80100106C20084038B50446FFF7EAFF18B1254A13681907FCD4032CC2
:2033C00003D0234B1B6803B138BDFFF7DDFFA0B1204B21481B68DB689847204B15201B68C1
:2033E0005B69984740F2F2701D4A1E49136823F4FE6323F00203136008601B4D4FF40070C7
:203400002B681B6A9847032C09D12B684FF400709B6A98472B684FF400701B6B98470121B5
:20342000124B134A196013689B07FCD51D2000F0CDF91C2000F0CAF94FF0FF3000F0C6F96C
:20344000BDE838404FF0FF3000F0C0B918100040E4080020D001001000100040B001001012
:203460003810004044100040B8010010282008602820084010B507F09FFF0446054800F046
:2034800089F90022044B1A6004B110BDBDE8104007F096BF94040020E408002010B5044629
:2034A000FFF772FF08B9FFF7F7FE044B2146BDE810401B680248DB69184700BFD00100103E
:2034C0000010004008B5FFF75FFF18B1024B1868C0F3C00008BD00BF1810004070B5FFF77B
:2034E000BBFE40F2F2710C4B0C4A1B68116013F0500F0DD00A4C0B4E0B4D06E033682846A8
:203500001B699847094B1B681BB92368DB06F5D570BDC0B29847EFE74010004044100040EF
:2035200018100040D001001000100040E4080020034A136823F00403136030BF704700BF2C
:2035400010ED00E070B507F037FF02F025FB18B1BDE8704007F034BF7F4802F019FC02252D
:20356000044648B1636823B19847854228BF0546EDB22468002CF5D1FFF7B4FC774B0646C0
:203580001B6843B1764B1B681B1A022B38D4A3F28F23002B3DDB02F0A7F9F8B102F0ACF9A6
:2035A0000446FFF755FC241A002CD1DDFFF722FD00EB4420831BA3F28F23002B31DA013DA5
:2035C000012DC5D8831B082B00F1B58006F580310B1A11EA230138BF014604E0012D40F0B9
:2035E000AD8006F580310220FFF7CEFC5D4A136823F00403136030BFBDE8704007F0E0BE88
:20360000002D00F0A38002F06FF90028A0D00025C4E7022DBFD102F067F90028E1D0012598
:20362000BCE7012DCED0022D92D101462846FFF7ABFC494802F0ACFB0446002870D0062530
:20364000A3680BB1022098472369246825EA0305002CF5D1FFF75AFD6B0764D425B1424B27
:2036600028461B689B69984700F060F900200AF0A7FA3E493E4A0B683B4823F003030B60E9
:203680001368016843F00F0313608B69392098470023384A38491360184613600B6008F095
:2036A0008BFA062D43D0354C354D364E2B682368326823F00303236053680321324898472C
:2036C000294B1B689B6B98472B6808F091FB00212E4A336811602C485B68012198470121F8
:2036E00023682B4A43F00303236011602B6808F0B1FB0AF031FAFFF7C5FBFFF707FD164833
:2037000002F046FB044628B1E36803B198472468002CF9D107F054FEBDE8704007F050BE50
:20372000FFF7F4FC06250022194B1A6097E7022007F0E4FEB7E706F1080154E7022D7FF484
:2037400007AF711E2846FFF71FFC72E702F0CCF800287FF423AFFBE6E8080020800224434F
:203760001820094010ED00E0B80100100010094008100940401009402004224324220840B8
:203780002C200940D801001000400340800104430C4009400146014802F0FCBAE808002083
:2037A0000146014802F03CBBE808002010B5054802F0EAFABDE81040034B20211B6803206E
:2037C0001B681847E808002084010010431C0ED010B5074B04461B684FF4C0421B68002158
:2037E00098470022034B43EA84031A6010BD7047B4010010001A444238B504460D4607F0E2
:20380000DBFD01230549064AA3400B6042F8245000B138BDBDE8384007F0D2BDE020024087
:20382000EC0800200021064B03F1800243F8041F9342FBD1034B10201B681B69184700BFEA
:20384000E8080020B0010010F8B500240126084B084F1D681D6006FA04F32B42E0B203D02A
:2038600057F8243003B198470134202CF3D1F8BDE0200240EC0800200022412300B585B052
:2038800002A8CDE902230AF07BF9042007F026FE032810D00321042007F0F8FD042007F09C
:2038A0001DFE0328FAD100901C234FF040520021044807F0A3FD02A80AF0B8F905B05DF8F4
:2038C00004FB00BF00A00C400022412300B583B06846CDE900230AF053F9012007F0FEFDF0
:2038E000012803D00121032007F0D0FD68460AF09DF903B05DF804FB0022412300B583B010
:203900006846CDE900230AF03BF9012007F0E6FD012803D0044B986B07F07AFC68460AF094
:2039200085F903B05DF804FB4800001010B54123002482B06846CDE900430AF021F903204D
:20394000214607F0A3FD012007F0C8FD18B1044B986B07F05DFC68460AF068F902B010BD99
:203960004800001040F205122DE9F04F03888BB0934204462AD040F27B12934206D0CBB18C
:203980000023032023800BB0BDE8F08F814801F0A1FF002800F091807F4E804F3368013371
:2039A000092B33603BDD07F007FD00233B7008B907F006FD7A4B7748196801F06DFF40F210
:2039C0000513012023800BB0BDE8F08F71480D4601F080FF00286ED0832D72D0714D002179
:2039E0003E22A81C0DF0DCFA4FF481721A232A80AB706D480DF01EFB07460923421CEA709C
:203A0000681D3A4668492B710DF0F2F90022DFF8AC81614E7B1D614FC8F80030326007F0D6
:203A2000CBFC01233B7000284FD00AF03FF98246002800F0A5805D4B9B6998470028B2D13C
:203A40000AF0B4FB04A840F6020218210AF09AFB49F230314FF000099DF82030544A03F0B5
:203A6000F8036FF3C303ADF8221004A803A98DF820308DF81E9009920AF020F901282FD016
:203A800002A94C480AF01AF9BAF1000F20D00AF097FB0C213F4801F0FFFE07F08DFC00235F
:203AA0003B70D0B13368082B3FF779AF40F27B130120238067E7832D03D001200BB0BDE8D8
:203AC000F08F0023022023805DE707F079FCACE70AF040FAFFF72AFFDBE707F071FCE1E7FB
:203AE00004A80AF037F90128CAD125222D4DDFF8CC800195DFF8C8B0154607E004A80AF07B
:203B000029F90128BCD10135282DB9D041F605020120CDF81A909DF81D10ADF81020264AE4
:203B200060F30301D8F80030CBF81020019ACBF818908DF81D108BF81B00CBF81C0003A95A
:203B400004A8CDF81E90CDF82290CBF80490CDF81290CDF81690ADF82690CBF80090CBF835
:203B60000C90CBF81490CDF820B08DF81E50CBF808208BF806300AF0A1F8002880D0BDE767
:203B8000FFF7A2FE0AF086FA01287FF40CAFFFF7B3FE57E76C0900209C090020C12A002074
:203BA000A8040020A4090020AC040020D0130100CC0400200100020446350020A00900205D
:203BC0007C09002038B50546A9B10B780C4623B108460DF02FFA1F2800D938BD2022002119
:203BE00007480DF0DDF920460DF024FA2146024603480DF0FDF8002DEFD0024B1D6038BD8B
:203C0000AC040020A804002008B507F03FFB10F0020002D0064B187900B908BD0023054A74
:203C200019460548137001F027FF012008BD00BFA8040020C12A0020E8040020014B1878DA
:203C4000704700BFC12A002008B50AF02FF830B1044B5B88022B14BF0220012008BD0220C8
:203C600008BD00BFE409002030B583B00AF01EF818B1134C6388022B08D001A910480AF077
:203C80001DF8012805D0002003B030BD012003B030BDFFF727F90A4C00F1400504E0FFF714
:203CA00021F9401B002809DA60880228F7D1A0F10200B0FA80F0400903B030BD6088F6E74F
:203CC000E409002010B5012488B002A840F6020218210AF057FA114A9DF81830126803F0A8
:203CE000F80391880E4A6FF3C303ADF81A1002A801A98DF818308DF81640079209F0DEFFF6
:203D0000A04202D0002008B010BD02A80AF022F8001BB0FA80F0400908B010BD380500202C
:203D20000C05002008B5FFF7CDFF012801D0002008BDFFF799FFC0B208BD00BFF8B50E4D68
:203D400000200E4F2C680E4E06E02379022B06D024682B68A34209D02379032BF5D13B7851
:203D60002BB124682B680120A342F5D1F8BD304601F048FF0120EBE7EC0C0020C42A002000
:203D80007C06002008B5B4290A46014628BFB42202480DF02DF8002008BD00BFFA0C00205D
:203DA00030B583B00AF0E8F9044609F07FFF08B903B030BD01A90A4809F080FF0128F7D189
:203DC000FFF790F800F1400504E0FFF78BF8401B0028EDDA638803F44063002BF5D0E7E745
:203DE000010001040B280BD00C2801D001207047042A07D131B10B4B00201B680B607047CF
:203E0000082A01D0022070470029FBD0064A4B1E073112F8010903F8010F8B42F9D100200B
:203E2000704700BF6C0A0020130A002010B542F20343002484B001A902A8CDF80A40ADF89A
:203E40000E40ADF8083009F039FF20B19DF90A30803302D0204604B010BD9DF80C0000F068
:203E60000C00A0F10400B0FA80F0400904B010BD30B583B009F01AFF18B1184C6388022B4E
:203E800005D0012003B030BDFFF7D0FF18B109F00DFF0028F8D101A9114809F00FFFFFF708
:203EA00021F800F1400507E06088022809D1FFF719F8401B002803DA09F0F8FE0028F3D19E
:203EC000608842F202439842DBD042F20743C01AB0FA80F0400903B030BD00BFE4090020D5
:203EE000010001040B2810B502D00124204610BD082A13D191B1114A01F1080313F8010DD1
:203F00008B4202F8010BF9D109F0D0FE18B10C4B5B88022B05D00024204610BD0224204655
:203F200010BDFFF7A5FF012814BF03240024FFF79BFE012818BF0324D8E700BF0C0A002069
:203F4000E409002030B585B009F0B0FEF0B1114B5B88022B1AD14FF00002002442F20345BA
:203F600063F301028DF80C209DF80C0000F00303022B0CD101A902A8CDF80A40ADF80E4040
:203F8000ADF8085009F09AFE0028EDD1FF2005B030BD00BFE40900202DE97848044609F007
:203FA00085FE20B1184B5B88022B02D00020BDE8788807F001FA05463CB1144A144B126842
:203FC0001A609DB10120BDE87888104B4FF0000C1E6800230E4C16F1804022684CF100011B
:203FE000994208BF904205D32660EAE707F0E8F90120DCE7FEF776FF064A07491368086075
:2040000001331360F0E700BFE409002004300440740A0020780A0020700A002008B5FFF751
:204020000DFE012806D009F041FE18B1094B5B88022B01D0002008BD09F038FE18B1FFF76D
:20404000F5FE0028F6D1FFF77DFFFF28F2D0C0F3801008BDE409002008B502E0FFF7E6FE95
:2040600018B109F023FE0028F8D1FFF701FF09F071FFFFF75BFC00220C4B0D48197942809E
:20408000022908BF1A710B4B1A79022A04BF00221A71094B1A79022A04BF00221A71074B49
:2040A0001A79022A04BF00221A7108BDAC0A0020E40900203C0B0020CC0B00205C0C002043
:2040C00008B5FFF7BBFD012801D0FFF7C5FF012008BD00BFF8B5FFF7B1FD01282ED0FFF7AE
:2040E000F3FB09F0E3FD18B11D4B5B88022B25D0012588241B4A1C48577946791B491C4BCE
:2041000065F3830765F38306577146714F795E7965F3830765F3830610600160C480D48092
:20412000CC804F710B601A60DC805E71FFF7E4FB09F0B0FFA84203D00020F8BD0120F8BD7E
:204140000C4B1878003018BF012009F0BDFFFFF7B9FD0128F0D1BDE8F840FFF785BD00BF31
:20416000E4090020AC0A00203C0B0020CC0B00205C0C0020C42A002030B585B0072800F22D
:20418000A980DFE800F0101F2A2D305A5F04524C217709F08BFD10B16388022B79D00024CF
:2041A000204605B030BD012900F08480019100296BD1FFF743FD0128F1D0FFF74DFF0199E6
:2041C0000C46EDE7A1F10B030F2B5ED8424CC9B2A37B8B42E3D0A173DBE73F4C6186D8E7FB
:2041E0003D4C2186D5E731F007024ED13A4CC1F34005237E394861F30003DBB243F00203CD
:2042000065F38203657E03F0870362F3C71362F3C7150278C1F3800191426576237601709A
:20422000B7D1228B2E4B03A918465A8009F046FD002814BF00240324B2E731F0010324D1B7
:20424000CCB2ADE701F115031A2B1ED86FF014030C24244A01E052F83430994230DD14F177
:20426000FF34F8D209F022FD002898D010221D4B02A903EBC404A38803A8ADF80E30ADF840
:204280000C20002409F01AFD8AE70224204605B030BDFFF7EDFD012814BF0324002409F0FF
:2042A00007FF012812D0FFF7DFFC01283FF478AF032475E7FFF70EFF01283FF470AFF7E7BA
:2042C000084B094A03EBC4031360CBE70020FFF763FEE8E7012463E7E4090020C42A00208E
:2042E000640A00201014010038050020002900F0A380F0B50C4685B0102800F29F80DFE836
:2043000000F00E1B20252A41444A5081879D9D8C90940900052300200B6005B0F0BD09F0ED
:20432000C5FC30B1524B5888A0F10200B0FA80F0400920600020F0E74D4B00209B7B0B60B8
:20434000EBE74B4B00205B8E0B60E6E7484B00201B8E0B60E1E70023454A0B60137E03F084
:2043600001030B60127E520744BF43F002030B60404B1B78002B5DD00B68002043F00403FC
:204380000B60CAE700200860C7E73B4B00201B681B680B60C1E7364B002093F91C300B6028
:2043A000BBE709F083FC00284AD0314B5B88022B46D100274FF000030222002562F3830371
:2043C000CDE9025542F203468DF80C300BE001A902A8CDF80A50ADF80E50ADF8086009F02B
:2043E0006DFC002837D09DF80C3003F00C03082BEDD0002F34D19DF90A302360803319D13E
:2044000003208AE71D4B00201B785BB20B6084E71B4B00201B780B607FE70B2300200B6067
:204420007BE71A2300200B6077E76FF0140300200B6072E7002070E70220704701206CE7D6
:20444000FFF748FE012808BF0746B3D06FF07F030320236061E780238DF80A30002FF5D03B
:20446000FFF7ECFB0128C6D0FFF7F6FDC3E700BFE4090020C42A002038050020C32A0020C9
:20448000C22A002070B588B0064609F00FFC002848D03A4B5B88022B44D10025FEF722FD40
:2044A0006FF01F04241A07E0FFF7C0FC012843D1FEF718FDC44241D509F0F8FB0028F3D168
:2044C00002A842F60142182109F05CFE00222C4B2C4CF6B28DF817602178069304929DF819
:2044E0001430891A18BF012162F3030301208DF8143009F021FE02A801A909F0DFFB30B375
:20450000207801E0002836D0BDF80A3003F44063002BF7D0BDF80A40A4B2B4F5105418BF40
:20452000012416E0FFF7D6FD012803D00124204608B070BD0546B1E70028C1D01DB1FFF7CB
:204540007DFB012813D10224204608B070BD20780124003018BF012009F002FE002DE6D0A4
:20456000FFF76CFB0128E2D0FFF776FDDFE7FFF773FD0224E8E7FEF7DBFFC1E7E4090020F5
:20458000FA0C0020C42A002010B50C46B42C2246014628BFB42204480CF02AFC2046BDE80B
:2045A0001040FFF76FBF00BFFA0C002010B5FFF745FB01281CD009F079FB18B11B4B5B8813
:2045C000022B1BD0FFF786FD012804460AD1FFF7B9FCFF2822D1FFF731FB012809D0FFF71D
:2045E0003BFD06E0FFF72AFB012801D0FFF734FD0124204610BDFFF719FC18B109F056FBEB
:204600000028F8D1FFF79EFCFF28F1D000F0030010F1FF3418BF0124204610BD00F00300E8
:2046200010F1FF3418BF0124D5E700BFE40900202DE9F047594E80460F463568FEF752FCD3
:20464000574C241A03E0FEF74DFCC44208D52B79022BF8D0032B06D000242046BDE8F08732
:204660002B79032BF8D1D6F8009099F80820032A06D999F80850EDB2A5F10804BC420ADD6D
:204680000024D9F8003089F8084089F8044033602046BDE8F0874046224609F109010CF064
:2046A000A7FBEB1C19F803303E4F5BB23B70043519F805203C4D02F03F0209EB0403D3F8D7
:2046C0000D802A7009F0F2FA18B1384B5B88022B60D0FFF7FFFC4FF0010909F0E7FA78B105
:2046E000324B5B88022B0BD10020FFF755FCB9F1000F05D0FFF7A2FA012801D0FFF7ACFC32
:204700002B4BB8F1404FD3F8009036D86FF4BF704FF0FF3100224B46DFF8A4C0DCF800C0FF
:20472000B0EB0C0961EBEC7A19EB08004AF1000110EB020841EB03094FEA092143F609529B
:20474000002341EA18614FEA08200CF097F9194B194A1B7810604BB93978042049B289B2CC
:2047600008F05AF82978032008F056F80022336819681A7231601A716FE7FEF7B3FB0F4BAC
:204780001B68C3F17E4303F57203C34248BF09F1FF39BBE74FF000099FE700BFF40C002027
:2047A000FAFEFFFFC32A0020C22A0020E4090020780A0020C42A00206C0A0020700A0020FD
:2047C0006C24002010B509F071FA18B1144B5B88022B1DD0FFF77EFC012811D10020FFF74A
:2047E000DBFB0446FFF72AFA012816D144B1BDE8104000230B4A4FF487310B4800F030BFE0
:204800000023BDE81040074A8021074800F028BF0020FFF7C1FB0446E8E7FFF71DFCE5E7A2
:20482000E4090020C54700007C0A00202DE9F0470025354F3548FEF7ADFF09F009FC384629
:20484000902229460CF0ACFB9022294630480CF0A7FB902229462F482F4C0CF0A1FB902200
:2048600029462E480CF09CFB2D4E2E4B29467E22A01C4FF0070A4FF002091F60C6E90075C4
:204880000CF08EFBA623FF2101224FF0190E4FF0B90C42F601086F2742F202002661224E19
:2048A00084F8199084F818A066612377268B1F4BA4F8008084F80EE084F80FC0E776A176DE
:2048C0005E801971627384F837201880FFF702FC012803D02C462046BDE8F08704461448A6
:2048E00009F05EFC2046FFF757FB2B46114A4FF48731114800F0B4FE2946104801F0BCF889
:204900002046BDE8F08700BFAC0A0020F80400203C0B0020CC0B0020E40900205C0C002071
:20492000EC0C0020F40C00209C0A0020640A002008140100C54700007C0A00207C0600207A
:2049400008B500F08BF880B208BD00BF00F014B938B50C4D04202B685B6998472B6804205D
:204960005B6B984701280446F8D12B6840F20140DB699847044B054A1C6013689B07FCD525
:2049800038BD00BFB80100102820086028200840034B1B68002B14BF01200220704700BFD2
:2049A000B00D0020F8B503880446002B2ED0B3F5847F05D1184B1B788B4205D00120F8BD80
:2049C000002323800320F8BD144D2B6873B1144B144A1B6812685B68022017460026984720
:2049E00030182B6847F1000198472E600E4B40F201401B689B6A984701210C4B0C4A1960BB
:204A000013689B07FCD50B48FEF7CAFE4FF4847323800120F8BD00BFEF060020B00D002034
:204A2000CC01001004800240B801001028200860282008403C05002008B5064B04201B68B4
:204A40005B6B9847012809BF034B00201868C0F3400008BDB80100103C2008402DE9F04166
:204A6000284B1B68D3B128480023024612F8011B49B90133042BF9D100274FF000083846A0
:204A80004146BDE8F0810021204AC15402EBC303D3E9007838464146BDE8F081FFF7CCFF16
:204AA00000282BD01A4A1B4B12681A420ED11A4A0121134611601A68002AFCD110464FF4F2
:204AC000807107F005FA0122144B1A6006F074FC06460F4A1368DB07FCD5114B114A1B6880
:204AE00012685B680220154600249847271845F10008002EC3D106F063FCC0E7FFF728FFA1
:204B0000D0E700BFB00D0020B40D0020000700200880024001000080F09F0240A8025042E2
:204B2000CC0100100480024038B500240D4D0E4A2C6013680D4923F00103096813604B6903
:204B400031209847224620464FF4807107F0C0F90122074B2A6019782246BDE83840054811
:204B600001F024B8A80250420C800240B0010010EF0600205005002010B5074C2378802BB5
:204B800000D010BD00F070FF002120700348BDE8104000F071BF00BFEF06002050050020BF
:204BA0000AB90020704708B508461146FEF7E0FA002008BD0FB400B583B004AB53F8041B81
:204BC00004481A46019300F027F803B05DF804EB04B0704760050020102970B50C460546A4
:204BE00013D90C4E01E0102C08D92B681022314668689847103C0028F5D070BD2246D5E9FA
:204C00000030BDE87040034918470029F6D1084670BD00BF941401002DE9F04F82468946A5
:204C200090464FF0000B8FB099F80030002B00F0D980252B08BF4D461BD04C4603E0252B86
:204C400000F0D4802C466378651C002BF7D14D4500F0C880DAE90030A5EB090649463246EC
:204C60009847002840F04F816378B344002B00F0B9806A7805F10109002A00F0B3800021B7
:204C8000A2F12003102B1BD8DFE803F0171A1A141A1A1A1A1A1A1A111A0E1A1A090041F0BA
:204CA000100119F8012FEBE741F00101F9E741F00601F6E741F00801F3E741F00201F0E789
:204CC000A2F13103082B40F295802A2A00F0C18000242E2A00F09D804FF0FF336C2A00F08E
:204CE000A580682A00F0AB80782A00F29B81DFE812F0790099019901990199019901990154
:204D00009901990199019901990199019901990199019901990199019901990199019901F3
:204D2000990199019901990199019901990199019901990199019901990199016F019901FD
:204D40009901990199019901990199019901990199019901990199019901990199019901B3
:204D60009901990199019901990199019901990199019901680199019901990161015A013B
:204D80005301990199019901990199019901990199019901990199019901990199019901B9
:204DA00099014C0199019901990199019901990199019901450199013E01370130010F01A4
:204DC000DB00990137019901990199019901D20092018B0199019901840199017D01990162
:204DE0009901760158460FB0BDE8F08F4D457FF431AF3EE7002404EB840402EB440419F836
:204E0000012F303CA2F13003092BF4D92E2A7FF463AF99F8012009F10100A2F13003092BAB
:204E200024D92A2A00F0AF81814655E799F801206C2A29D009F1010941F0600154E799F85B
:204E40000120682A00F0988109F1010941F040014AE7D8F8004099F80120002C08F10408FC
:204E6000B8BF41F0010109F1010932E7002303EB830302EB430310F8012F303BA2F1300536
:204E8000092DF4D9814629E799F8022041F0800109F1020928E709F10109D8F8003008F1C2
:204EA0000408C3F800B0BFE601F4E06242F4007241F48137B2F5806F09F1010933D040F23B
:204EC000B580B2F5C06F00F04A81B2F5E06FE4D0B2F5A06F7FF4A8AE012C38BF0124D8F8CA
:204EE0000030013C8DF82030FB0708F1040840F10883DAF80030012208A9DAF80400984722
:204F0000002800F0F8814FF0FF300FB0BDE8F08F01F4E06242F40072B2F5806F41F400778E
:204F200009F10109CBD1D8F8006008F10408002E00F0DE8135782DB1354615F8012F002AB2
:204F4000FBD1AD1B002BC0F2A8809D4228BF1D46A3E001F4E06242F4007241F40247A9E71F
:204F600001F4E06242F4807241F42457A2E701F4E06242F4A06241F4A0679BE701F4E06235
:204F800042F4007241F4C13794E701F4E06242F4807241F4B2478DE701F4E06242F40072E1
:204FA00041F4A13786E701F4E06242F4007241F484477FE701F4E06242F4007241F4424795
:204FC00078E701F4E06242F4007241F4E13771E701F4E06242F4C06241F4C0676AE701F4BD
:204FE000E06242F4807241F4C85763E701F4E06242F4807241F410675CE701F4E06242F4EE
:20500000806241F4806755E701F4E06242F4407241F440774EE701F4E06242F4807241F482
:20502000885747E70F4601F4E06243E7B2F5807F4ED0B2F5407F7FF4F7ADBC4BD8F8001085
:2050400017F4804FBA4E08F1040818BF1E460A4600230DF1330E002900F09E807146100975
:2050600040EA03704FEA131C02F00F0563460246705D01F8010D52EA0300F0D1BEEB0105B1
:2050800000F08B80033578203022232301F8010C01F8022C01F8033CCE1EAC428CBF641BA4
:2050A0000024FA0740F1F0813146DAF800302A46DAF80400984700287FF425AF214650461F
:2050C000AB44FFF789FD00287FF41DAFA344ABE5002BB4BF012327F0100717F400520393A4
:2050E000069207F0E0035ED0402B00F0F18100F20D81002B00F0B681202B40F0EF8198F9F5
:20510000002008F10408D317002A73F10001C0F2B381CDE904230023079307F4C053B3F5BB
:20512000805F59D10DF136030193DDE90423134300F0BF81DDE90423019DD00840EA4370E8
:20514000DE0802F0070133460246303105F8011D52EA0301F1D1019B5B1B019348E0DAF890
:20516000003001227349DAF80400984700287FF4CAAE0BF1010B57E599F8022041F020010F
:2051800009F10209B0E599F80220D8F8003009F1020908F10408A1E571463023042501F806
:2051A000013C01396FE7402B00F09B8100F2CE80002B00F04C81202B40F083810023069A41
:2051C00008F10408079218F8042CCDE9042307F4C053B3F5805FA5D0B3F5C05F00F00781CB
:2051E000B3F5006F00F0DB8000230DF13605019341F60803019903983B40814241F208026B
:20520000C0F0B980934200F0178100220391029241F60802934240F0AB80DDE9042313434A
:2052200000F0A680444A17F4804F444B08BF134602260493069B7BB1079B002B40F0F88040
:2052400007F00603022B00F038813D4A062B049B04BF134601260493039B33449C428CBF09
:20526000E41A002417F00103039306D1F90640F1E680029A22441C460292DAE900303EB124
:2052800004993246984700287FF43DAEDAE90030029F019A102F934440F22D8110222949CB
:2052A0009847103F00287FF42EAEDAE90030102FF4D83A462349984700287FF424AEDAE950
:2052C0000030019A2946B344984700287FF41BAE029B5B449B46039B002B3FF4F7AE214635
:2052E0005046FFF779FC00287FF40DAEA3449BE4154E062526E6214650460BF1010BFFF75C
:205300006BFC00287FF4FFADA3448DE4602B00F0A980802B40F0E28008F1070323F0070386
:2053200003F10808D3E90023EEE600BFB4140100C8140100F8140100E0140100DC1401005E
:20534000EC140100A4140100F0140100602B7ED0802B40F0B68008F1070323F0070303F190
:205360000808D3E90023CDE90423069B07932EE7002604965EE7039901989342A1EB000175
:2053800002917FF445AF00290B4608BF012302930026DDE901321344CDE903364AE70DF185
:2053A0003605DDE9042352EA0301019500F08180CDF808B01646BB461F46304639460A229E
:2053C00000230BF05BFB30323046394605F8012D00230A220BF052FB06460F4656EA070355
:2053E000EBD15F46DDE9013B5B1B019300E7504B17F4804F4F4E0DF1360518BF1E46DDE90D
:20540000042352EA0301019553D0110941EA03714FEA131C02F00F0063460A46315C05F8C7
:20542000011D52EA0301F0D1019B5B1B0193DFE6414B012604930FE701230293A8E72146F3
:205440005046FFF7C9FB00283FF417AF5BE5D8F8003000221946069B08F10408CDE90412A8
:205460000793B4E6D8F8002008F10408D317002A73F10001BFF64DAE524263EB4303CDE9FC
:20548000042301230793A2E621465046FFF7A4FB00287FF438AD3146DAF800302A46DAF8D2
:2054A0000400984700287FF42EADAB44A344FFF7BBBB0023019D01939AE6204B0126049353
:2054C000CAE60023002207930023CDE904237EE6B8F9002008F10408D31715E600220023D9
:2054E00017E60023069A08F10408079238F8042CCDE904236BE6029A002A3FF4E2AE1746DA
:20550000D7E621465046FFF767FB00287FF4FBAC0122DAF8003008A9DAF8040093449847D5
:2055200000287FF4F0ACA344A344FFF77DBB00BFB4140100C8140100E4140100E8140100DD
:2055400010B50446006830B1002100F095FA54F8040F0028F8D110BDF0B5038883B0054688
:205560005BB14A2B04D188291BD0012003B0F0BD002303202B8003B0F0BD194800F008FC12
:20558000044630B1A168201D00F086F92468002CF8D10122134B1A704A2301202B8003B0B3
:2055A000F0BD0F48019200F0F3FB04460028F3D0019A031D9A4205D02468231D002CEBD022
:2055C0009A42F9D1084E2146054800F029FCD4E90523376832600BB1E06998473760DBE7B3
:2055E000B80D0020C52A0020440F002010B50024054B06481C7000F0C7FB2146BDE8104023
:20560000034800F039BA00BFC52A0020B80D00206805002070B504460D48049D0078C4E992
:205620000623656130B9A1600A482146BDE8704000F0B0BB084D094B2E68201D2B6000F031
:205640002BF92E602146BDE87040024800F0A2BBC52A0020B80D0020440F00206805002051
:2056600010B5044C82B024680094FFF7D3FF02B010BD00BF440F002070B5094B04461B78F4
:205680003BB1084D084B2E6804302B6000F00EF92E602146BDE87040044800F07BBB00BFAF
:2056A000C52A0020440F002068050020B80D002070B5094B04461B783BB1084D084B2E6876
:2056C00004302B6000F0FCF82E602146BDE87040044800F05FBB00BFC52A0020440F002046
:2056E00068050020B80D002010B50A4B04461B783BB9C0E903332146BDE81040064800F0D4
:205700008FBB043000F002F92146BDE81040024800F086BBC52A0020B80D0020704700BFDF
:2057200010B5FDF795FB0B4B1B689A68D3E900142144091A4AB1D2E9003423441B1A92686D
:20574000994228BF1946002AF5D1034B0844186010BD00BFC00D0020BC0D00202DE9F84373
:205760000388054673B3592B27D1872930D082291ED14FF000092D4FDFF8B8803C68BCB183
:20578000002603E0A368264693B11C46204600F089FA0028F6D022468821E06800F006FAD3
:2057A00030B3404600F02EFAA3682646002BECD1592301202B80BDE8F88300232B800320B0
:2057C000BDE8F883194A0120136059232B80F2E7164F39680029EBD0CB689A4203D014E0F2
:2057E000CB68934210D189680029F9D13960DFE7E060A368BEB1B3603B68C4F808907BB18D
:20580000FFF78EFF3C68BAE739608B68002BCFD0D3E90204944214BF194688600346F5E793
:20582000034A1360C4E73B60E7E700BFC00D0020BC0D00207805002010B50446104800F00B
:20584000E1F91049E3680A684BB142B194420FD0134601E09C420BD09B68002BFAD10A4B73
:20586000A2601B680C60E360BDE81040FFF758BF054B1B68E360BDE81040FFF751BF00BF22
:2058800078050020C00D0020440F0020014800F0B9B900BF7805002010B5044600F0EEF91E
:2058A0002046BDE81040FFF7C7BF00BF10B5044600F0ECF92046BDE81040FFF7BDBF00BFE2
:2058C00010B5044600F0E8F92046BDE81040FFF7B3BF00BFC068B0FA80F04009704700BF65
:2058E000D0E9002010447047024B1868003018BF01207047C00D0020024B186808B1024B58
:2059000018687047C00D0020BC0D002010B5114B04461A68824213D072B19368984208BF27
:20592000134605D043B19A68A24201D01346F9E7A2689A60FFF7F4FE0023C4E9023310BD97
:2059400082681A60002AF5D1034B1A600023C4E9023310BDC00D0020BC0D00202DE9F84332
:20596000234F3D68854208D0002D38D02B4601E0002B34D01B689842FAD180B31D4E837BF7
:2059800089460446D6F80080D3B10023837365B1AC4207D0AB7BDB0704D5224687212846C9
:2059A00000F02AF82D68002DF2D1A3683BB14C4505D034600022832104F10C0098473D6814
:2059C000A54212D04DB12B68A3420AD02BB11A68A24207D01346002BF9D1C6F80080BDE864
:2059E000F8832B4622681A60F7E72B683B60F4E7480F0020440F002070B586687EB104465A
:205A000002200A4BA0731C6004F10C000D46B0470238012804D9832D02D00123A37370BD0C
:205A200021462046BDE87040FFF798BF440F0020002238B50A490B4B0C681A707CB101257B
:205A400001E024685CB1E37B002BFAD0E581204600228221FFF7D0FF2468002CF3D138BDB2
:205A6000480F0020C92A0020024B1878421C1A70704700BFC72A002070B50F4D2C68844275
:205A800006D034B1234600E01BB11B689842FBD170BD0028FCD003460A46012000211C6095
:205AA000064C987326689981184681212B60FFF7A3FF266070BD00BF480F0020440F002062
:205AC00030B48A250023064A064815700649074A074C03700B601360237030BC704700BFB4
:205AE000C72A0020C82A0020480F0020440F0020C62A00202DE9F041224D2B780BB1FFF77E
:205B000097FF214E3378BBB12048214F0278013B02EB4201890001327C1802F01F020270D6
:205B2000A068DBB233707F5CD4F8048040B1812F1DD0827BD2071CD428781844BDE8F0819C
:205B4000144A14682CB9F7E7A37BD90709D424689CB12B78002BF7D0FFF76AFFA37BD90702
:205B6000F5D5424639462046FFF746FFEFE70123837342463946FFF73FFF337828781844E1
:205B8000BDE8F081C92A0020C82A0020C62A0020C40D0020480F0020024A034B10781B789D
:205BA00018447047C82A0020C92A002070B40C4D2C78202C11D00B4B0B4E1B78234403F0C3
:205BC0001F0303EB43039B0001342C70F418C4E90120F154002070BC7047012070BC7047DD
:205BE000C82A0020C62A0020C40D002038B5837B034CDB07256801D5FFF7FEFE256038BDA7
:205C0000440F002018B1837B013B012B00D970470123024AC3731370704700BFC92A0020A0
:205C2000FDF75AB938B50A4C049D22682AB1C0E9013501602060002038BD0246C0E9013518
:205C4000016008462260FDF749F9002038BD00BF4C0F002010B5084C206858B1D0E90131F9
:205C6000002222609847236823B1BDE810401868FDF734B910BD00BF4C0F002010B541607F
:205C80000446FDF7E5F8206010BD00BFD0E9003213440360704700BF10B50446FDF7D8F8EF
:205CA000206010BD10B50446FDF7D2F8D4E90032C3F10103184482422CBF0020012010BD0A
:205CC000F8B504880746672C0BD0792C04D0D4B100233B800320F8BD852936D11C4E0023DA
:205CE00033601C4D1A4C05E00A282646236811D07E2B25DD284600F0C5F8431CF4D16723DF
:205D00003B800120F8BDFFF7AFFE134A104B10701C60E6E70025114A0F49D5540978013318
:205D200028462360FFF742FF0D4B2A4618688521FFF73CFF0028D2D179233B800120F8BD24
:205D400006495A1CC8542260D4E70120F8BD00BFD00F0020D40F002077350020500F002043
:205D6000440F002008B505490548802200F082F8BDE8084000210348FFF77EBEDC0F0020B6
:205D8000D40F00208805002000230360704700BF0068704710B404685CB1A1421CD02368A1
:205DA0000BB906E01346994212D01A681C46002AF8D100230B6002680AB906E01A461368D0
:205DC000002BFBD1116010BC7047016010BC70470B6814B12360ECE70B680360E9E700BF01
:205DE00030B4046864B1A14217D0236825460BB906E01346994207D01A681D46002AF8D1F1
:205E00000C60016030BC70470B682B6000230B6004680C60016030BC70470B680360F5E7F8
:205E200010B404685CB18C4211D023680BB906E013468B421A6804D01C46002AF8D110BCA4
:205E4000704734B1226000221A6010BC7047234622680260F7E700BF03682BB100201B6829
:205E60000130002BFBD170471846704700B10068704700BF0023013A0160027143718371C5
:205E8000704700BF10B4817942790479521A224207D003464A1C00682240405C9A7110BC03
:205EA00070474FF0FF30FAE708B5034802F04CFD024B034A1A6008BD256900005C100020A6
:205EC0000100FD0070B413780C7A83F002039C4220D0214D0B892C681BB94B89B3F57F4F95
:205EE0000CD0012201F10803824004F1080603CB2E6020606160D0B270BC70478B89FE2BA2
:205F0000EFD10223CA8903FA00F024F8022B2C60C0B2F1E74C7A53789C42DAD18C7A937812
:205F20009C42D6D1CC7AD3789C42D2D10C7B13799C42CED14C7B53799C42CAD18C7B93791B
:205F40009C42C6D1D379CA7B9A42C2D1032303FA00F0C0B2D0E700BF2C17002010B5124C4B
:205F60000220A17906F058FCA379112B09D0062B07D03A2B0FD0BDE810400021012006F0F1
:205F80004BBC238D618D0120BDE81040994228BF194606F041BC218D0120BDE8104049BA6B
:205FA00089B206F039BC00BF782C00200E4B1A78012A01D00020704710B459880288914278
:205FC00002D0002010BC70474288998802309142F7D1D98830F8022F9142F2D142881989D8
:205FE0009142EED11846EDE75C10002008B50146102006F01FFC044B00219B68034898476F
:20600000BDE80840FDF782B8CC1501001160000010B50C461146204601F092F8044B1B68F1
:2060200013B19B6820469847024B1C6010BD00BF68100020341700202DE9F843184D002224
:206040002B469C78713334B101320C2AF9D14FF0FF30BDE8F883C2EBC20402EB041405EB09
:20606000040888F80110074606F030FBDFF838900C4B99F800101E68401A88F802002F5598
:206080000E4406F023FB99F800200334821A314628190AF0ADFE98F80200BDE8F88300BF48
:2060A000701000203C170020CA2A00202DE9F04780461646002A3DD1664D89462E46738A1F
:2060C00017464FF0020A4FF0FF342BBB631C2ED0BAF1010F06F1B80619D1621C14D0B826A9
:2060E00006FB04F6AF190F20A7F81290A7F8108006F0ACFB0146384605F0E0FF06F11800F9
:2061000028444021FFF7BAFD2046BDE8F087738A4FF0010A002BD9D006F11800FFF7C2FDA4
:20612000002843D1611CD3D1738A002BD0D1CAF10204CDE7474D2B8A834208D0B5F8C83039
:20614000434524D04FF0FF342046BDE8F0876B8A002BF3D00F2006F079FB0146284605F0A9
:20616000B3FF0028EAD00024E7B238463146FFF763FF00282BDB0028E4DDB82303FB045538
:20618000AB8A64B21844A8822046BDE8F087B5F8CA30002BD6D00F2006F058FB01462E48FF
:2061A00005F092FF01240028CCD0DDE72B4BCAF10200778203F24C51C0B29A781AB11A780D
:2061C000824208BF9F7071338B42F6D17EE76B8AE3B1002C39D02248FFF764FD0028B1D060
:2061E000002210461D4B6A8203F24C519A781AB11A780AB99A70013071338B42F6D1002874
:20620000A0D031463846FFF717FFB4E7B5F8CA30002B97D0002C95D11248FFF743FD0028EF
:2062200090D00022104694460C4BA5F8CA2003F24C519A782AB11A78012A04BF83F802C092
:20624000013071338B42F4D1D9E7B5F8CA30002BE2D177E7BC1500207416002070100020F9
:20626000D41500208C1600202DE9F84315090F2D0646994602F00F0422D00F2C0DD0224606
:206280002F46C5BBA046C2F11002F01900210AF087FE9CBB15BBBDE8F88335BB1024DFF873
:2062A0008490D9F8007038687968BA68FB6830607160B260F3603C44C9F80040BDE8F8831C
:2062C0000F2C11D01027A0463A463D4630460AF08FFD07EB08020F2ADBDCD4E749463046DA
:2062E000BDE8F84301F070B910254FF010082A4644462F46EAE72A46A046E7E7DFF8249029
:20630000C8F11000D9F800703044394622460AF06FFD022CCFD10A2DCDD8FF22FE23F27262
:206320003373C8E72C1700202DE9F04F002589B00F20DFF83493C04C06F088FA05F07CFE32
:2063400089F80050257006F0ADF9BC4E3060042006F06AFA3368BA491A8800B252BA92B2E1
:206360000860111201F0F801C02964D0E0290FD02278A846995C009501F0E0006028AB4647
:20638000B04F76D0412900F0168109B0BDE8F08F588893F804A02378C2F30A0B40BA053344
:2063A00080B2524659462370FFF780FEB0F1FF3F8046EAD0B823A44A2F4603FB00239B8A8A
:2063C00001225B4534BF002301230092019306F07DF923788342D8D806F078F9237899F88B
:2063E0000090C41A09EBCA0A984AA244BAF57A7F1460CAD837B1316807EB090019442246A0
:206400000AF0F6FCBBF1000F40F03281009B002B00F04081019B002BB7D08D4BA3F800B00A
:206420008C4C236823B1FFF799FD23685B68984702F0A4FAA9E758882378C2F30A0B40BA0D
:20644000043380B22A4659462370FFF72FFEB0F1FF3F804699D0B8277B4A336807FB002798
:206460000122009222782237995C01F0E000602888D19818457802321344DFF8F0A16AB251
:20648000002ACAF80030BCBF0133CAF80030C806019201F0080200F1B780DAF80030002A8F
:2064A00000F0018160223A7093F800C0D81C4FEA9C0202F030020CF00F0C42EA0C027A70C9
:2064C000B3F80130CAF800007B8011F00403029306D1DAF8003013F8012BBA71CAF8003059
:2064E00011F0030100F0FD805B4B5B5CFB716A06C5F3011340F11281019A002AC0F22F813A
:206500000022002B40F0E581194607F108020392524A0F20D25C0591049206F097F9DDE931
:20652000042103460398FFF79FFE05F0030205F0040315F0080500F0DC80B3B94849531EFD
:206540000988012BADF81C1007D8DAF8003013F8011B8DF81D10CAF80030424900238A5C6D
:2065600007F1180007A9FFF77FFE99F80020DAF8003002F1280189F80010029929B1197882
:2065800001F0F801F02900F00D8132689B1A2370BBF1000F00F0D780ABF128031A127B71B7
:2065A0003A71BB79112B4FF0000300F0C5800193009D9A460BE73946501CC0B2034403F1AE
:2065C0002000D3F800A0D3F804E0D3F808C0DD6810338342C1F800A0C1F804E0C1F808C02A
:2065E000CD6001F11001ECD10025019518685B6808604B6099F8003029322833AA462270A4
:2066000089F80030009DE2E6002A47D1DAF8003018461B78C3F3830343F060033B7010F8AA
:2066200001CB7A804FEA9C0303F0300343EA8C13CAF800007B7048E7CA2A00203C17002067
:2066400030170020782C0020BC15002038170020642C002068100020481501004C150100A7
:206660002815010054150100CB2A00202C17002045B1B822A14909EB040302FB08129BB2E1
:2066800093821384019B002B40F0DE80009B002B7FF47BAE9A4B4C441C80C1E6602200233A
:2066A0003A807B8011E7184633F8012F9B78A7F80120FB7010F804EB97F801C04FEA9E0315
:2066C00003F030020CF00F0C42EA8E1203F00F0343F0600342EA0C02CAF800003B707A7086
:2066E000F3E6DAF8003013F8012BFA71CAF80030FDE6002B49D0019B002BC0F2E3802B46B7
:20670000804D2978012902D1697899422DD000237D4A9A4601931360009D58E67B4A0F20B5
:20672000D25C039206F092F8039A0346784907F10800FFF799FDF8E61A460193BB889246F6
:20674000BB85009D43E605F0C1FF237899F80020C31A1344283B1A127B713A7121E7217837
:2067600032680A4492781209CBE66A49664B8A5C102001921D6006F069F8019A0346A91CD1
:2067800007F11800FFF770FDEFE6604B10209D5C06F05CF82A4603465D4907F11800FFF72E
:2067A00063FDE2E61121B971187800F0F301F03900F00400032900F29C80DFE801F03B3265
:2067C0002302597802330909A1F5756189B2090241F0F001398513F8011C01F00F01A1F52B
:2067E000756189B2090241F0F0017985CAF8003020B933F8021BF985CAF80030303289F8F7
:206800000020C2E659780433A1F5805189B2090241F0F001398533F8021C7985CAF80030E2
:20682000E6E7B3F801100433398513F8011CA1F58051D6E7B3F801100533398533F8021C93
:206840007985CAF80030D3E7B82303FB08F32B4F314D03F122013B441A8C39442F48A3F8F7
:2068600014B0EE1E0AF0C4FA06F24F5A02E07135554510D015F8012C002AF8D015F8033C75
:206880009845F4D115F8020C244B294603EBC0000AF0AEFAEBE7B82300225FFA88F803FB67
:2068A000087711467A821E4AB3781BB13378434508BFB17071369642F6D1009B002B3FF44D
:2068C000E9AEAAE5217833680B449B7803F00F0316E70C48017801297FF419AF417891423C
:2068E0007FF415AF084A811C106007F1080203920EE60023009D01939A4668E5BC15002005
:20690000642C00205C1000206C100020501501002C1501004C15010073100020782C00202E
