:020000040000FA
:2000000000500020AD0F0000A50F00008D0F0000A90F0000A90F0000A90F0000000000003C
:20002000000000000000000000000000A90F0000A90F000000000000A90F0000A90F0000E0
:2000400039380000A90F0000C17B0000A90F0000DD2E000045330000A90F0000A90F000090
:20006000A90F0000E97B0000A90F0000A90F0000A90F0000A90F0000A90F0000A90F000014
:20008000A90F0000A90F0000A90F0000A90F0000A90F0000A90F0000A90F0000A90F0000A0
:2000A000A90F0000A90F0000A90F0000A90F0000A90F0000A90F0000A90F0000A90F000080
:2000C000A90F000071480000294B1B689B0702D44FF000407047F0B5452183B0002002F0BA
:2000E00065FD0DF106010222012007F0C9F938B901A8022107F0EEF94FF0004003B0F0BD21
:200100000DF106010222002007F0BAF90028EFD0BDF806301C0A44EA0324A4B2200BADF879
:20012000044009F07DF808F02FFC0646C4F30B000F4609F085F80CA3D3E9002304460D46E6
:200140003046394609F0E6F802460B462046294609F0E0F809F08EFB064909F0E9FC09F0EC
:2001600037FE03B0F0BD00BF7B14AE47E17A843F4C0600200000C84208B51F4B1B68032B35
:2001800033D1431E012B30D81C4A1D4B012812881B8812D0184609F043F80022194B09F09F
:2001A000B9F80022184B09F0B5F809F063FB174909F0BEFC09F00CFE08BD104609F030F8BA
:2001C0000022104B09F0A6F809A3D3E9002309F0A1F800220E4B08F0E5FE09F04BFB0B4905
:2001E00009F0A6FC09F0F4FD08BD4FF0004008BD0000000000A06440540600201A16002063
:20020000181600200000F03E000059400000C84200004440000000002DE9F041624B1B68C4
:20022000F3B10023614C10F0380806462360A38040D1420714D002F0C3FD5D4D6FF009070F
:20024000286005E002F0BCFD2B68FB1AC34203D501F03AFD0028F5D0564B1B78DB0704D4FE
:200260004FF000484046BDE8F0816821012002F09DFC06224D49432007F002F905460028A0
:2002800066D0002125786278A37865702270E5782279E37063790846A5706271237102F02B
:2002A00085FC042E40D0022E5DD0012EDAD1B4F904003BE002F084FD3D4D6FF00907286084
:2002C00005E002F07DFD2B68FB1AC34203D501F0FBFC0028F5D0374B1B78D907C0D5682160
:2002E000012002F063FC314906223B2007F0C8F800210546084602F059FC002D49D02278F7
:200300006378A078E1786270237022796379202EE070A1706271237128D0102E33D0082E30
:2003200034D04FF000089DE7B4F9000008F088FF1BA3D3E9002309F017F909F09BFA1E4927
:2003400009F0F6FB09F044FD80464046BDE8F0810621164807F0BEF82946284602F026FCF4
:200360004FF000487EE7B4F90200DFE7B4F9000001F0D4FB104909F0DBFB09F029FD8046A2
:200380004046BDE8F081B4F90200F1E7B4F90400EEE70621054807F09DF861E7AFF300804A
:2003A0000000000000606040A40600207C0600204C160020261600200000C84200000000E9
:2003C0002DE9F04F23F0004555EA020493B00DD0794E21F00044B4420F4682460FDD04F1FB
:2003E000404404F5801454EA0A035BD10023734CCDE90034DDE9000113B0BDE8F08F98461D
:2004000094464ED0B542EADC6B4EB54266D0002F8B468146CDE9022364DB0026BCF1000F7E
:200420000ED1654B9D4246D0644B9D4200F09780B8F1804F00F0B280614B984500F0D2833B
:200440004846594608F004FDCDE90001BAF1000F06D1002C60D0594B27F040429A425BD08E
:20046000FF0F013F56EA070300F08280554B9D4240F3B08003F104739D4240F34E84524B24
:200480009C4240F38280B8F1000F40F3828048A3D3E900231046194608F03CFFCDE90001F3
:2004A000A8E728B1494813B0BDE8F04F08F0DCBCA542F7DCA8E704F1404303F5801353EA83
:2004C0000A0393D0404B9C4240F39683B8F1000F5FDBDDE90234CDE900348BE7BCF1000FF1
:2004E00095D07CE73A4B9D4237DCA3F154739D4293DD2B15A3F2FF33142B40F3ED83C3F176
:2005000034032CFA03F202FA03F3634585D102F00102C2F1020681E7B8F1000F07DADDE922
:2005200000230020254909F01FF8CDE90001002FBFF660AF04F1404404F5801454EA060303
:2005400000F04984012E7FF455AFDDE90045224605F10043CDE900234CE702265EE7B8F16A
:20056000000FC0F2558348465946CDE9000141E74A4648465B46594608F014FD02460B46D6
:2005800008F0F2FFCDE9000134E7B8F1000FFFF67EAF00230024CDE900342BE74A46484665
:2005A0005B46594608F0B6FECDE9000122E700BF9C7500883CE4377E0000F07F0000F03FC4
:2005C0000000E03F0000E041FFFFEF3F50A40000FFFF3F43B4F5801F80F29C83DDE900019B
:2005E0000022D14B08F096FE6FF0340C0C46CDE900012315CD4AC4F31304A3F2FF3344F071
:200600007F5503EB0C0194420D9145F4401540F37383C74B9C4240F30084002300240022D0
:20062000CDE90A34CDE910340024C24B0131CDE906230D91A5F58015DDE906ABDDE900017F
:2006400052465B462946804608F0ACFC5246CDE908015B4640462946CDE906AB08F0A4FCA0
:2006600002460B460020B34908F07EFF0A4601461346CDE90E120246DDE9080108F04AFE33
:200680000A4683469446002301460020CDE900BC00936B1043F0005303F50023CDE90412F0
:2006A000DDE900AB1919A94604460D4602460B465046594608F02EFE02460B46DDE90801B1
:2006C00008F070FCDDE90623CDE908012046294608F068FC02460B464046494608F062FCD3
:2006E00052465B4608F016FE02460B46DDE9080108F058FCDDE90E2308F00CFEDDE90445F9
:20070000CDE9060122462B462046294608F002FE73A3D3E9002304460D4608F0FBFD72A3DF
:20072000D3E9002308F040FC22462B4608F0F2FD6FA3D3E9002308F037FC22462B4608F0F9
:20074000E9FD6DA3D3E9002308F02EFC22462B4608F0E0FD6AA3D3E9002308F025FC224687
:200760002B4608F0D7FD68A3D3E9002308F01CFC2246804689462B462046294608F0CAFD40
:2007800002460B464046494608F0C4FD04460D46DDE9040152465B4608F006FCDDE9062368
:2007A00008F0B8FD22462B4608F0FEFB5246804689465B465046594608F0ACFD00225E4B53
:2007C000CDE9080108F0F0FB42464B4608F0ECFB00980D4604462B4622465046594608F044
:2007E00099FD002282468B46534B2046294608F0D9FBDDE9082308F0D5FB02460B46404691
:20080000494608F0CFFBDDE9042308F083FD224680468946DDE906012B4608F07BFD02462F
:200820000B464046494608F0BFFB8046894602460B465046594608F0B7FB35A3D3E90023DC
:2008400000980D46044608F065FD5246CDE904015B462046294608F0A5FB02460B46404689
:20086000494608F09FFB2CA3D3E9002308F052FD2BA3D3E90023804689462046294608F053
:2008800049FD02460B464046494608F08DFBDDE9102308F089FB80460D98894608F0D0FC71
:2008A00082468B46DDE9040142464B4608F07CFBDDE90A2308F078FB52465B4608F074FB4E
:2008C000009852465B4604460D4608F06BFBDDE90A2308F067FBDDE904232FE0AFF30080E1
:2008E000EF4E454A287ECA3F65DBC9934A86CD3F01411DA96074D13F4D268F515555D53F08
:20090000FFAB6FDBB66DDB3F033333333333E33F000000E009C7EE3FFD033ADC09C7EE3F92
:20092000F5015B14E02F3EBE000040438E98030079B60B000000F03F0000084008F032FBC5
:200940000B4602464946404608F02CFB0022013E56EA070314BFDA4BDA4B8B46CDE9042354
:20096000DDE9021200230E461746CDE900670093DDE9006782463B4608461146324608F08E
:2009800011FB22462B4608F0C5FCDDE90223804689465046594608F0BDFC02460B46404634
:2009A000494608F001FB8046894632463B4620462946CDE9028908F0ADFC0B46024606468A
:2009C0000F464046494608F0EFFABF4B044699420D468A4640F3268101F13F4303F5E00351
:2009E000034340F0FE81A2A3D3E90023DDE9020108F0DAFA3246804689463B4620462946E6
:200A000008F0D0FA02460B464046494608F012FF002840F0E681A8464FF4801300204FEA81
:200A20002852A2F2FE3213415344C3F30A52A74DA2F2FF321541C3F3130423EA0501C2F1D9
:200A4000140B44F48014BAF1000F02460B4644FA0BFB30463946B8BFCBF1000B08F0A2FA4D
:200A600006460F46DDE9020132463B4608F09CFA0D464FEA0B5A00247FA3D3E90023204609
:200A8000294608F047FC3246804689463B462046294608F087FA02460B46DDE9020108F076
:200AA00081FA77A3D3E9002308F034FC76A3D3E9002306460F462046294608F02BFC0246C5
:200AC0000B463046394608F06FFA06460F4602460B464046494608F067FA42464B46044664
:200AE0000D4608F05FFA02460B463046394608F059FA2246804689462B462046294608F03E
:200B000009FC63A3D3E9002306460F4608F002FC61A3D3E9002308F045FA32463B4608F049
:200B2000F9FB5FA3D3E9002308F03EFA32463B4608F0F0FB5CA3D3E9002308F033FA324659
:200B40003B4608F0E7FB5AA3D3E9002308F02CFA32463B4608F0DEFB02460B462046294608
:200B600008F020FA06460F4602460B462046294608F0D0FB0022CDE900014FF08043304640
:200B8000394608F00FFA02460B46DDE9000108F0EBFC424606460F464B462046294608F00F
:200BA000B9FB42464B4608F0FFF902460B463046394608F0F7F922462B4608F0F3F90246FD
:200BC0000B4600203E4908F0EDF98A44BAF5801FC0F235815146DDE9042308F09BFBCDE9F3
:200BE000000107E4002FFFF62BAC4846594613B0BDE8F04F08F06AB8B8F1000FBFF6C9AC3E
:200C0000DDE90234009304F100430193FFF7F2BB4A465B4600202A4908F0A6FCCDE90001C1
:200C2000FFF7E8BB2A4B21F00048984540F3E980284B0B4403430AD132463B4608F0B2F955
:200C4000DDE9022308F0ECFD00283FF4E5AE1AA3D3E90023DDE9040108F05CFB16A3D3E9AF
:200C6000002308F057FBCDE90001FFF7C3BB00BFFE822B654715973C00000000432EE63F48
:200C8000EF39FAFE422EE63F396CA80C615C20BED0A4BE726937663EF16BD2C541BDBB3ED9
:200CA0002CDE25AF6A56113F93BDBE166CC1663F3E5555555555C53F59F3F8C21F6EA5012C
:200CC0000000F03F0000F0BFFFFF8F40FFFF0F00FFCB904000346F3FBCF1000F40F09A80DA
:200CE000C3F1140345FA03F202FA03F3AB4200F0AA806646FFF798BB002300241A462346F7
:200D0000CDE90A23CDE910230022614B0024CDE9062391E44FF0000C6BE45E4B9C427FF72A
:200D200034AC5B4B9C423FF7AEABDDE900010022574B08F037F948A3D3E9002304460D46A6
:200D400008F0E8FA46A3D3E9002382468B462046294608F0DFFA0022CDE900014E4B2046DA
:200D6000294608F0D7FA02460B463FA1D1E9000108F018F922462B4608F0CCFA02460B46CE
:200D80000020464908F00EF92246804689462B462046294608F0BEFA02460B464046494604
:200DA00008F0B8FA32A3D3E9002308F0B3FA02460B46DDE9000108F0F5F802460B4680468C
:200DC00089465046594608F0EFF800200D46044652465B46B2E5DDE9002310461946FFF70F
:200DE000CBBB25A3D3E90023DDE9040108F092FA21A3D3E9002308F08DFACDE90001FFF7A8
:200E0000F9BA264B98453FF707AEDDE900239246934630E60026FFF713BB19A3D3E90023B1
:200E2000CDE90A2318A3D3E90023CDE9102300221B4B4FF48024CDE90623FFF7FDBB5A46B0
:200E400000F032F8C7E602F00102C2F10206FFF7EBBA00BFAFF30080000000604715F73FAD
:200E600044DF5DF80BAE543E555555555555D53FFE822B654715F73F9C7500883CE4377E8D
:200E80000000004003B8E23F06D0CF43EBFD4C3E0000F03FFEFFEF3F0000D03F0000E03F54
:200EA0000000F83F00000000F8B5C1F30A5304460D460E4617460BBB034621F00046334313
:200EC0001BD02F4B002208F025FA2E4B04469F420D4637DB0E46C1F30A53363B40F2FE72F3
:200EE0003B4493421ADC002B11DD26F0FF4626F4E00646EA035520462946F8BD40F2FF727F
:200F00009342EBD102460B4608F04EF8F8BD13F1350F1DDA4CF250339F420CDD14A1D1E97B
:200F2000000122462B4608F031F811A3D3E9002308F0F0F9F8BD22460FA1D1E900012B4649
:200F400008F024F80CA3D3E9002308F0E3F9F8BD26F0FF4626F4E006363346EA03552046B4
:200F600029460022084B08F0D5F9F8BDAFF300809C7500883CE4377E59F3F8C21F6EA50149
:200F800000005043B03CFFFF0000903C044B1A68B2F5806F03D01B689B0500D4FEE770473B
:200FA00028ED00E0FEE700BFFEE700BF08B504F0CFFF0F4B0F4A93420CD2181D0332121A79
:200FC00022F003020C49024451F8040B43F8040B9342F9D109480A494FF000028842B8BFF8
:200FE00040F8042BFADB00F06FF8FFF7CFFF08BD000000207905002088A700008005002043
:201000009216002070B50588064605BB4FF480022946114803F072FC032000F013FA01F04B
:201020009BF8044630B90D4801F0F4FF01F0C4F8204670BD4FF48001284601F0C5F801F0A0
:20104000BBF8074801F0E6FF032000F005FA00233380032070BD00BF20A3000044A3000017
:2010600058A30000F0B5002706463C463D4683B0304600F0E7F90195019B9C4206DD00BF2D
:20108000019B01330193019BA342F8DB304600F0E3F90195019BC4F5C8749C4206DD00BFAF
:2010A000019B01330193019BA342F8DB0137B7F5487F06D0B7F5C87FCCBFC7F548743C467F
:2010C000D6E703B0F0BD00BF2DE9F0416E4C86B0236801216D485B689847012223681146F4
:2010E0001B686A48984704F007FE02F0BDFB02F055FB01F003F902F08DFB00F099F90123EA
:2011000063496448644A03600B6018461368FFF7A9FF04F0F5FD01F055FE01F0C5FD04F0B3
:20112000C1FB01F01FFF04F019FB41F2342003F0B1FA02F0D3F804F04BFC584801F06AFFC5
:201140004BF2AC720021564803F0D8FB554801F061FF04F03BFD544C544D10F0040F14BF6E
:2011600027462F4604F03AFD01280CBF26462E4604F02CFD10F0020F14BFA046A84604F0C5
:2011800025FD10F0080F08BF2C463246434600943946474803F0B2FB0021464804F0BAFA43
:2011A00004F0C8F804F026F90220FFF75BFF424803F0A4FB414B424C186801F02BFF41489C
:2011C00003F09CFB404B186801F024FF3F4803F095FB21683E4803F091FBE469A04720B1C9
:2011E000A04701463B4803F089FB00270A2001F009FF05F03DFB04A80821374D039701F06C
:2012000041FF364BBDF816209DF816109DF817401A8044EA0124EE6A4AF6CD310220B047DF
:2012200021460320B0470B210120B047082204A96B6B0B209847AB6A03A9012098470399D5
:20124000274803F05BFB274B214627481C8003F055FB0220FFF706FF3946244804F05AFA5F
:20126000234804F011F801F08BFE0120FFF7FAFE04F08EFA044601F0B7FE14F0FF0FF7D137
:2012800002F058F9F4E700BFD801001000400340080009400C4009402C20094078A300006F
:2012A000A0A30000B8A3000070A3000074A30000CCA300001405002000A4000080A60000F4
:2012C000BCA6000008A4000098A6000010A4000018A400001CA4000028A50000501600203F
:2012E00040A400001416002054A400003804002018A300002DE9F04104880646772C2FD0F0
:201300007E2C26D024B1002303203380BDE8F08104F0F8F92D4F2E4B2E4D3A6818702C603E
:2013200082B12346A0462C4C04F8038093680021802098472B68013357F823202B60002A8B
:20134000F2D1DAB2254B1A70772333800120BDE8F0811F4B1B788B421CD00120BDE8F081D3
:20136000DFF878801B4D98F800201D4F00233B602B60002AE8D0184CE256002A18DB2B68A3
:2013800098F80020013393422B60F5DB3B68002BECD1D9E70F4D104CDFF84080104F2B68AD
:2013A0003A68E15C013201F07F01E1543A60E7E7064A074952F823200978002004F044FA0D
:2013C0000028ECD17E23012033809FE74804002090160020AC05002040160020201600205E
:2013E000A805002010B40E4B1C78B4B10D4A136898424FF0000304D106E052F8041F88422A
:2014000002D00133A342F8D107490848CA5C62F07F02CA5410BC04F037BA2346F4E700BFAD
:201420002016002048040020401600203804002008B500F01BF80022014B1A7008BD00BFDC
:2014400021160020034A137803431846137000F029B800BF21160020034A137823EA000367
:201460001846137000F01EB8211600200A4B1A6882B9012210B5094C1A6023680A20DB6BAA
:20148000984723680F20DB6B98474FF40442044B1A6010BD704700BFB0050020B40100105F
:2014A000A02002404FF40442084B094908701A60C20744BF4FF4806243F8102C830703D540
:2014C0004FF40042034B1A60704700BFA02002402216002090200240813801289ABF024B75
:2014E00018680020704700BFD00500200322024B02481A60FFF776BFD00500206CA400007B
:2015000010B5044682B07721002001F04FFB4CB98DF8074001220DF10701F42005F0BEFFD7
:2015200002B010BD25238DF80730F3E730B5802885B016D0812803D01D4B186805B030BDA0
:201540001B4C20680028F9D029B30120FFF7D8FF18480023184A032103F026FF022020601E
:20156000ECE70125124C77210020256001F01EFB1C221249882005F083FFB62304A901F896
:20158000013D2A46E02005F089FF0020FFF7B8FF206805B030BD0748019103F011FF0199AB
:2015A0000846FFF7ADFF012318462360C6E700BFD0050020DC050020ED140000B4050020FA
:2015C000534B1B68032B40F0A080431E012B00F29C8000232DE9F0414E4D772104462B605F
:2015E0001846AB8001F0E2FA29460622F72005F047FF002800F081802A794749E8786B791C
:20160000120142EA0032088842EA1312C0EB121303FB03F3B1F904604000B1F902701B131C
:20162000C0EBD20206FB03F307FB02F29B1303EBE2234FEA630CACF57A4C4FEAAC0707FBA0
:2016400007F7B1F90820B1F90A6078130CFB02F200FB06F0521002EBE0029214C88802F511
:20166000004200FB02F0C0138B612A7895F801E0AE783AD0B1F90E80B1F910500CFB08FCEF
:20168000FF124FEA4C0C05FB07CCB1F90C70360946EA0E163F0446EA023607EBAC071F4D60
:2016A00006EB273605FB06F505F1434505F5A005002DB3BFB5FBF0F06D00B5FBF0F0400058
:2016C000C20802FB02F5B1F91420B1F9166087086D0B02FB07F206FB05F5B1F91210521325
:2016E00002EB25320A4400EB2210012C03D103EB830080300012BDE8F0812846062105F067
:20170000E9FE4FF00040BDE8F0814FF000407047D0050020D4050020B4050020CBF3FFFF94
:20172000813801289ABF024B18680020704700BF040600200322024B02481A60FFF752BEA5
:20174000040600208CA4000010B504464421002001F02CFA002C0CBF002410240222044BC2
:2017600010461C801946BDE8104005F097BE00BF1616002010B5802882B016D0812803D0CD
:201780001D4B186802B010BD1B4C20680028F9D029B30120FFF7D8FF18480023184A24210E
:2017A00003F002FE02202060ECE7164C012023689B6B984723684FF480419B69012098473B
:2017C00023684FF08041DB69012098470020FFF7BBFF01231846084A136002B010BD074855
:2017E000019103F0EDFD01990846FFF7ADFF012318462360C6E700BF040600200C06002023
:2018000035170000B401001038B5354B1B68032B5AD1820758D003280BD0012805D002288F
:2018200052D1304B1B68184638BD2F4B1B68184638BD2E4D44210446002001F0B7F929468A
:201840000222042005F01CFE00283BD02A88130A43EA02239BB22B805B0433D5244D0222E9
:201860002946012005F00CFE88BB2148042105F031FE00202C786B78A978EA7843EA042465
:2018800042EA012200B3900808F0FEF84FF0745108F04EF9174908F04BF908F099FA124BF9
:2018A000104D1860A00808F0EFF84FF0745108F03FF9104908F03CF908F08AFA01232860EA
:2018C000184638BD0A4DD0E74FF00043ABE702222046A91805F0D4FD0028CBD1C5E700BF53
:2018E00004060020FC05002008060020161600200006002000007A44014B1868704700BFFD
:201900004C06002070B506460E4C82B045210020256801F04BF976B94FF4865305F00205C9
:201920002560ADF8063002220DF10601012005F0B5FD02B070BD41F2C2020123ADF8062091
:201940002360F0E74C06002000B5452183B0002001F02CF902220DF10601012005F090FD6B
:20196000BDF90630002B08DB0023084A1021084803F01AFD03B05DF804FB0648FFF732FDF3
:201980000222054B1A6003B05DF804FB491900002C0600209CA400004C060020802810B57F
:2019A0000DD0812809D10C4671B90D4803F008FD2046FFF7A7FF204610BD002010BD0020BC
:2019C000FFF7A0FF002010BD0120FFF79BFF0023044A1021024803F0E7FC012010BD00BF65
:2019E0002C06002049190000813801289ABF024B18680020704700BF54060020032138B50A
:201A0000124C134A23781160CBB1124D4321002001F0CCF82846042100F078FF0021207040
:201A2000084601F0C3F828886988020A42EA0022094D0B0A094843EA01232A800380012353
:201A400007482370BDE83840FFF7CCBC2316002054060020500600201A1600201816002022
:201A6000B4A4000030B5802883B023D0812803D0234B186803B030BD214C20680028F9D06B
:201A8000002936D01F4D2B785BB14321002001F08DF8002000F000FF00212870084601F0FB
:201AA00085F819480023194A032103F07DFC02202060DFE70024164B164A174D20461C609F
:201AC000432114802C8001F071F80222102302A921F8023D104605F0E1FC0A4B2146187042
:201AE000204601F063F801231846054A136003B030BD054803F064FC012318462360B9E70B
:201B0000540600202316002058060020FD19000050060020181600201A16002008B5174B2B
:201B20001B78032B28D8DFE803F0151E0C0207F087FB00224FF07D5307F0ECFB07F09AFED2
:201B400008BD07F07DFB00220D4B07F0E3FB07F091FE08BD07F074FB00220A4B07F0DAFB0E
:201B600007F088FE08BD07F06BFB0022064B07F0D1FB07F07FFE08BD002008BD2416002018
:201B80000000303F0000103F0000203F813801289ABF024B18680020704700BFA4060020C0
:201BA0000222024B02481A60FFF71CBCA4060020CCA4000010B56821012000F0F7FF3F2331
:201BC000094C012221466C20237005F067FC4F23214601226B20237005F060FCBDE810404F
:201BE0000021084600F0E2BF28160020802838B50BD0812806D111F03F0141D1294B1B684D
:201C0000DB0429D4284B186838BD284C072023689B6B984723684FF400519B6907209847CC
:201C200023684FF08041DB690720984723680C20DB6B984723684FF440729B6A4FF480614A
:201C40000C2098474FF4805400221948194B164904601A60086838BD164B1748196003F0AD
:201C6000AFFBFFF7A7FF154A136813F00103FBD14FF480500C4A0E4913600860106838BD69
:201C80004FF4805001240B4B0D4A074D1960106000230C4A082108482C6003F085FB2C60A5
:201CA000204638BD80200240A4060020B4010010A0200240780600208406002004280040A2
:201CC00090200240F11C000010B5084C6821012000F06CFF214601223A2005F0D1FB002121
:201CE000084600F063FF207810BD00BF261600202DE9F041364C236813F0380F29D1354DAA
:201D000003F03F042E7866B9002C3CD12C70FFF751FFBDE8F04100232F4A05212F4803F0AB
:201D200043BBE3B22B70002CF1D02D4FDB43682101203B7000F03AFF012229496C2005F05A
:201D4000ADFB0021084600F031FF264803F0DCFFDFE7254E3278002AD1D00025234F682142
:201D600001203D7000F022FF394601221C2005F095FB07462946284600F018FF2368002F36
:201D8000BDD03570BBE76821012000F00FFF0923134F012239466B203B7005F07FFB3F2390
:201DA000394601226C203B7005F078FB01220F491C202E7005F072FB394601223A2005F03A
:201DC0005FFB3146304600F0F1FEE3B22B70ADE77806002027160020A11B000084060020B8
:201DE000281600208038010024160020251600208138012808D808B5044B00201B685B68E3
:201E00009847C0F3804008BD00207047B40100108138012808D808B5044B04201B685B68D7
:201E20009847C0F3804008BD00207047B401001028B1012806BF054BD86800207047044B72
:201E40001868C04300F00100704700BFA8060020C020024008B100207047034B18686FEAF1
:201E6000101000F001007047C0200240802870B514460AD0812807D1E1B9BDE87040184BA4
:201E800010461B685B6B184770BD0123144D154993402A680B60936B204698472B68204628
:201EA0000021114A1B689847E0B21049BDE8704001F09ABC01230A4D0A4993402A680B601F
:201EC000936B204698472B6820461B68064A002198472B682046BDE870401B6B184700BF01
:201EE000B4010010E020024000400720091F000008B50022FFF7BAFF012008BD08B50422F5
:201F0000FFF7B4FF012008BD38B510B1042814D038BD134C204603F0FBFC0028F8D00421BB
:201F2000204603F0EDFC0F4B1D6815F001050CD100F008FFC4E9020538BD4FF08052BDE842
:201F400038404FF4804101F027BA00F0FBFEA368C31AE3600448BDE83840FFF743BA00BF04
:201F6000A8060020C0200240E4A40000024B1868C0F3C000704700BFC0200240813801282F
:201F800008D808B5044B03201B685B689847C0F3804008BD00207047B4010010802810B5CC
:201FA00009D0812805D1134B1B68F1B95B6B03209847012010BD0F4C032023685B6B9847DA
:201FC00008210D4B0D4A1B681160DB694FF4A060984723680A4A1B680021032098470949F8
:201FE000032001F001FC012010BD1B6B03209847012010BDB4010010B8010010E02002409C
:20200000002003200920000008B5074803F080FC00B908BD0548FFF7E5F9BDE808404021EC
:20202000014803F06DBC00BFB80600200CA5000030B5042100244FF480451A4A1A4B126874
:2020400083B0ADF8004001920DEB01001D6000F0EFF9E0B10221684600F00AFA134B1D6056
:20206000D0B19DF80030EF2B04D0C22B02D0204603B030BD9DF80100A0F11103012B0ED919
:20208000143801288CBF0020012003B030BDFF20064B1D6003B030BDFF2003B030BD012032
:2020A000F8E700BF24A50000A02002409020024030B505224FF4804583B0114B02AC04F878
:2020C000042D1D6000F0FAF92046012100F0B0F920B910E09DF80730DB0706D501210DF1DC
:2020E000070000F0C5F90028F4D14FF48042054B1A6003B030BD034B1D6003B030BD00BFA5
:20210000A02002409020024030B583B0FFF7D0FF08B903B030BDB9224FF480450A240C4B25
:2021200002A800F8012D01211D6000F081F9094B1D60FFF77DFF631E0028EAD013F0FF041A
:20214000F7D14FF48042034B1A6003B030BD00BFA02002409020024010B5112182B0124814
:2021600000F0BEF9114B0E201B68114CDB6B98474FF48043AB210F4A02A8236000F8011DBB
:202180001360012100F054F908B1FFF791FF4FF48042074B1A60FFF74BFFA0F10100B0FAE1
:2021A00080F0400902B010BD00093D00B401001090200240A020024008B5FFF7A5FFBDE8EC
:2021C000084000F0EBB900BF20232DE9F04301F6FE7620F47F64064424F00F04361B83B081
:2021E000360B8DF8043030D04FF00609DFF86880184F04EB063621E04FF4804502A800F89B
:20220000089D0121C8F8005000F012F9220C230A3D6004F58054A8B100218DF807100421EC
:202220008DF805208DF806300DEB0100C8F8005000F0FEF83D6028B1A64206D0FFF738FFE9
:202240000028D9D103B0BDE8F083012003B0BDE8F08300BF90200240A020024008B5FFF78F
:202260007BFFFFF751FFBDE8084000F097B900BF10B5064C042023685B699847236804209A
:202280005B6B98470128F9D110BD00BFB8010010FFF7EEBF032801D000F012BA08B505F044
:2022A0002BF9104B00219B68812098470E4B00219B68812098470D4B00219B688120984702
:2022C0000B4B00219B68812098470A4B00219B68812098474FF48052074B1A60BDE808403D
:2022E00000F0EEB96CA400009CA400008CA40000B4A40000CCA40000A020024070B503F0E5
:20230000FBFC0646FFF7B4FF3A4B4FF4A0601B68DB6998470121384B384A196013689B07A6
:20232000FCD54FF40055364C00F09CF905F0DEF8FFF794FF334801F025FA236819209B6B84
:202340009847236829469B6919209847236818209B6B9847236829469B6918209847236840
:2023600017209B6B9847236829469B691720984723681B209B6B9847236829469B691B2049
:20238000984723681E209B6B984723684FF480419B691E20984723680D20DB6B98471A4ABF
:2023A0002368156000214FF480729B6A0D209847236802209B6B9847236829469B69022004
:2023C000984723680B209B6B9847236829469B690B20984723681D209B6B984723682946D4
:2023E0009B691D20984706B170BDBDE8704003F087BC00BFB8010010282008602820084086
:20240000B40100106C040020A020024008B5064B02201B685B6B9847012809BF034B0020AE
:20242000186800F0010008BDB801001078200840F0B583B004460E46FFF7E8FF074688B1E4
:2024400086B10A4D26442B6814F8011B5B684FF0804098472B6801A9DB684FF080409847CA
:20246000B442F0D1384603B0F0BD00BFC4010010F0B583B004460E46FFF7C8FF0746B8B14A
:20248000B6B10D4D264409E02B684FF08040DB689847019B04F8013BB44209D02B6800211D
:2024A0009B684FF08040984701A90028ECD10746384603B0F0BD00BFC401001010B582B0F6
:2024C000FFF7A4FF40B1054C236801A91B694FF0804098470028F7D102B010BDC401001046
:2024E000F0B5254D07462B6885B002205B690E4698472B6802205B6B984701280446F8D101
:202500002B684FF48070DB6998471C4B1C4A1C6013689B07FCD54FF0030C0825002319499B
:2025200019480A68044622F00F0200680A60174A1749C2F800C0CDE900751A4605684FF017
:202540008040A847134A4FF0FF3312680096556C122113224FF08040A8470F4A136843F0D0
:2025600002031360236803A91B694FF0804098470028F7D105B0F0BDB8010010282008607F
:202580002820084014000040C401001020000040006CDC02B40100100400004010B5174BA8
:2025A0004FF480701B681B6A98470121144B154A196013689B07FCD5134C122023689B6B98
:2025C000984723684FF400519B6912209847236813209B6B984723684FF400519B691320EF
:2025E0009847236811209B6B984723684FF40051BDE810409B691120184700BFB80100102B
:202600002820086028200840B401001010B5094B09481B685B68984710F00C0F044605D0EC
:202620000422064B02201A6003F06EFBB4FA84F0400910BDAC01001000200040042800406A
:2026400008B5064B02201B685B6B9847012809BF034B0020186800F0010008BDB8010010C4
:202660006020084070B5104D02202B685B6998472B6802205B6B984701280446F8D12B688F
:202680004FF44070DB699847084B094A1C6013689B07FCD5BDE87040064B01221B68064979
:2026A0001B680648184700BFB80100102820086028200840AC010010006CDC0200200040BB
:2026C000FF22214B10B51A70FFF7BAFF20B100231E491F4A0B6013601E4B4FF440701B68EE
:2026E0001B6A984701211C4B1C4A196013689B07FCD51B4C082023689B6B984723684FF453
:2027000000519B6908209847236809209B6B984723684FF400519B690920984723680520E9
:202720009B6B984723684FF480419B6905209847236806209B6B984723684FF48041BDE853
:2027400010409B6906201847760500200428004010040542B8010010282008602820084035
:20276000B40100102DE9F84F0746474B47481B78474A5B0003603B780E46136000F020FB62
:2027800000F5CC54434D193404E000F019FB001B002854DA2B685B06F7D4032302202B605C
:2027A00003F0B2FA00F00CFB00F5CC54394D193404E000F005FB001B002840DA2B68D807F8
:2027C000F7D4FFF723FF012E034659D9B8B30124A346DFF8BCA0DFF8BC8006F1FF39631EFD
:2027E0003B4413F8012FA145CAF800202BD80134B442F6D30523274C0220236003F084FAAF
:2028000000F0DEFA00F5CC55193504E000F0D8FA401B002813DA2368DA07F7D4FFF7F6FE55
:20282000044600F0CDFA1B4E00F5CC55193533685B0605D500F0C4FA401B0028F7DB0024CD
:202840002046BDE8F88F0220C8F800B003F05CFA00F0B6FA00F5CC55193504E000F0B0FA89
:20286000401B0028EBDAD8F80030D907F6D4FFF7CDFE0134B442034602D20028AFD1DEE7F0
:20288000002BDCD0B6E700BF2916002000280040082800400428004038B5184B18491B781E
:2028A000184A5B000B60106000F08AFA00F5CC54154D193404E000F083FA001B00281ADAC0
:2028C0002B685A06F7D4072302202B6003F01CFA00F076FA00F5CC540B4D193404E000F06C
:2028E0006FFA001B002806DA2B68DB07F7D4BDE83840FFF78BBE002038BD00BF291600207D
:202900000028004008280040042800402DE9F84F394B3A4A1B7883465B0043F001031360AD
:202920000F4600F04DFA00F5CC55354E193504E000F046FA401B002822DA346814F04004AD
:20294000F6D10B230220336003F0DEF941F699182B4D07F1FF3A5FFA84F9D1451EDA00F09E
:202960002FFA00EB080604E000F02AFA801B002806DA2B68D907F7D4FFF748FE013418B91A
:2029800000242046BDE8F88F09231E4A022012680BF809202B6003F0B7F9DCE70523184CA8
:2029A0000220236003F0B0F900F00AFA00F5CC55193504E000F004FA401B0028E0DA2368E4
:2029C000DA07F7D4FFF722FE04460028D8D00D4B5F441B680A4E07F8013C00F0F1F900F53A
:2029E000CC55193533685B06CBD500F0E9F9401B0028F7DBC4E700BF291600200028004074
:202A000004280040082800402DE9F04F0546634F634E38780C46400030602878614983B088
:202A200008609046994600F0CBF900F5CC56DFF878A1193604E000F0C3F9801B002847DAFB
:202A4000DAF800305A06F6D403230220CAF8003003F05AF900F0B4F900F5CC56DFF848A156
:202A6000193604E000F0ACF9801B002830DADAF80030DB07F6D4FFF7C9FD012C03462CD9DC
:202A800030B34FF0010B2B19DFF818A1464E01935D4415F8013B0220CAF80030C6F800B0A0
:202AA00003F032F900F08CF900F5CC54193404E000F086F9001B00280ADA3368D807F7D462
:202AC000FFF7A4FD019A0346954206D00028E0D10024204603B0BDE8F08F002BF8D00B2274
:202AE0003B782F495B00304C43F001030B600220226003F009F941F69917A8F10206DFF83A
:202B0000A4B04E4408F1FF3A564519D000F058F9C51904E000F054F9401B0028D8DA236819
:202B2000D907F7D4FFF772FD0028D1D00923DBF8002002200AF8012F236003F0E5F8E3E72C
:202B40000523194C0220236003F0DEF800F038F900F5CC55193504E000F032F9401B002873
:202B6000B6DA2368DA07F7D4FFF750FD04460028AED00C4BC8441B680B4E08F8013C00F0EF
:202B80001FF900F5CC55193533685B06A1D500F017F9401B0028F7DB9AE700BF2916002053
:202BA0000028004008280040042800402E4B10B504461970FFF744FD002830D02B4B1A7859
:202BC000A24232D000222A482A491C7002600A601B78002B2AD1284C4FF4C041236805208F
:202BE0009B69984723684FF4C0419B690620984723680622DB6C0521204898472368082000
:202C00009B6B9847236809209B6B9847BDE810401B4B01221B681B491B6818481847FFF799
:202C200021FD124B1A78A242CCD110BD012BEDD1114C4FF4C041236808209B69984723688D
:202C40004FF4C0419B6909209847236809220821DB6C0A489847236805209B6B98472368AD
:202C600006209B6B9847D1E729160020760500200428004010040542B401001000200040AB
:202C8000AC010010006CDC0210B5064C042023685B699847236804205B6B98470128F9D17D
:202CA00010BD00BFB80100100020002170B51B4A1B4BC2E900011B6804205B6B984701286D
:202CC00001D0FFF7E1FF164B00201B68DB6998470121144B144A196013689B07FCD5134A83
:202CE00013491368096823F4807323F00103114C13600B682046104998470423312640F2DA
:202D00002120012223600D4D0D4903F1864303F510132E6008601A6070BD00BF8005002043
:202D2000B801001028200860282008400C000140C801001000000140002100043C00014081
:202D40000800014010B40949094A0B68146808688342FAD1DA010023064902EB5462C1E938
:202D6000002310BCD1E90001704700BF082009400C2009408005002010B50B490B4A0B68C7
:202D8000146808688342FAD1DA010023084902EB5462C1E9002302F0F5FB00B910BDBDE8EB
:202DA000104002F0DFBB00BF082009400C20094080050020704700BF0146012000F052B815
:202DC00002F0F2BE2DE9F04102F096FF0124002580464FF480314FF480701A4E1A4B1B4F15
:202DE00032683D601C60186019601368284623219847336820461B6824219847336825219A
:202E00001B6802209847124A1249136843F4E02313600D6002F0C8FE0F4B1049104A1B689A
:202E200000F50070086014603C601B6914209847B8F1000F01D0BDE8F081BDE8F04102F0B7
:202E40005FBF00BF8401001004200940000024430020094008200940B00100101C2009400C
:202E6000A0022443431E012B10B419D9042801D010BC704700231A4610F004001CBF0E4CCA
:202E8000216013B101210D4B196012B101220C4B1A600028ECD001220A4B1A6010BC7047EA
:202EA000012803BF084A03461160002310F00202E2D0064C2160DFE7202009408002244337
:202EC000A0022443C0022443182009401C200940014B1868704700BFC006002008B5FFF7DF
:202EE0006FFF184B1860FFF747FF174B1B686BB9164B1B68E3B9164B1B6833B100204FF499
:202F000080321449144B08601A6008BD4FF48072114B1A6002F048FE00F205200F4B20F4D4
:202F2000FF7020F001001860084B1B68002BE2D0002001220A49084B08601A6002F0CCFC61
:202F4000D9E700BFC0060020A000244380002443C0002443C0022443042009401C200940DC
:202F600080022443012203490348044B08601A60704700BF00000840FFFF0F00000C08405E
:202F800038B502F0B9FE124AB0FA80F01368012B0BD001230F4C104D1049114A4009256045
:202FA0000B601360C3070FD438BD0E4C09490A4D146040090D60094C094940F00200236008
:202FC0000B601360C307EFD5BDE8384002F098BE000C084000000840FFFF0F000C00084023
:202FE0000401004351E5CC1A012203490348044B08601A60704700BF00000840FFFF0F00B7
:203000000C00084010B50446C0B200F07BF9204610BD00BF70B506460024451E04E015F89C
:20302000010F00F06FF90134304607F03FF9A042F5D80A2000F066F900F078F90128FBD0D1
:20304000204670BDF8B50646B0B10078B0B1B9B101317518741C04E014F8010B30B1AC4226
:2030600004D000F04FF9A71B002CF5D100F05EF90128FBD03846F8BD0746F7E70746F5E7CE
:203080000F46F3E710B40B4B0B4C1A780133FF2A0DD1A342F9D1094A39B11144013801390F
:2030A0000B78914200F8013FF9D110BC7047014AF2E700BFC8FF0100D0FF0100F012005068
:2030C00038B50C4D02202B685B6998472B6802205B6B984701280446F8D12B684FF4007076
:2030E000DB699847044B054A1C6013689B07FCD538BD00BFB80100102820086028200840E8
:203100002DE9F04340F2F275DFF8DC8083B0FFF7D7FFD8F800302A4EDB682A4898473368F4
:20312000294C5B69152098472368DFF8C090274F23F4FE63D9F8002023F0020323603D6079
:20314000D36B1D2098474FF0FF334FF000502049D9F8002008600093D2F840901C211D22AA
:203160001848C847D8F800206023D2F8048019494FF4E1321348C047142140F2011340F258
:20318000013C154A154811600268154942F0100202600868134A002818BF634613603D60D2
:2031A0000B6853B115202368326843F050032360136903B0BDE8F043184703B0BDE8F08304
:2031C000B001001000100040381000404410004090200240006CDC02341000402C10004086
:2031E000C406002030100040D0010010B401001008B5064B02201B685B6B9847012809BF76
:20320000034B0020186800F0010008BDB80100106C20084038B50446FFF7EAFF18B1254A1F
:2032200013681907FCD4032C03D0234B1B6803B138BDFFF7DDFFA0B1204B21481B68DB68CA
:203240009847204B15201B685B69984740F2F2701D4A1E49136823F4FE6323F002031360E9
:2032600008601B4D4FF400702B681B6A9847032C09D12B684FF400709B6A98472B684FF4CB
:2032800000701B6B98470121124B134A196013689B07FCD51D2000F091FA1C2000F08EFAAA
:2032A0004FF0FF3000F08AFABDE838404FF0FF3000F084BA18100040C4060020D001001040
:2032C00000100040B00100103810004044100040B8010010282008602820084010B502F001
:2032E0000BFD0446054800F04DFA0022044B1A6004B110BDBDE8104002F002BD8004002041
:20330000C406002010B50446FFF772FF08B9FFF7F7FE044B2146BDE810401B680248DB69E5
:20332000184700BFD00100100010004008B5FFF75FFF18B1024B1868C0F3C00008BD00BFA0
:203340001810004070B5FFF7BBFE40F2F2710C4B0C4A1B68116013F0500F0DD00A4C0B4E0D
:203360000B4D06E0336828461B699847094B1B681BB92368DB06F5D570BDC0B29847EFE76E
:20338000401000404410004018100040D001001000100040C40600202DE9F04740230027AF
:2033A00042F0005282B042EA0105CDE90073064602F0A2FC01204FF480714FF48032434B48
:2033C0003C461F60424B434F186019601A603B6820463F211B6801349847042CF7D1002446
:2033E0003C4F3B6820463F219B6801349847032CF7D1394B1B68FFF7F7FD384802F0FEFA70
:20340000044630B1A3680BB1032098472468002CF8D1731C0AD00021314B324A43EA8603FF
:203420001960136830462A461B689847002401272D4EDFF8E4903368C9F800409B69072077
:203440009847684604F0A6F800F086FA00F034FA264827490368326823F0030303600B68ED
:20346000244D23F00F030B6093693820984738462C6004F0AFF8DFF8A4A01F481F4A20491F
:20348000204B2C60DFF85080CAF80040076014601D4A0C60C9F800401C60D8F800301B49FD
:2034A0001368096823F0030313604B68184803219847184A33682C60CAF8004017609B6B76
:2034C000D8F80020984702B0BDE8F0870000244304200940840100102C200940C806002063
:2034E000001A4442B4010010B80100100010094008100940401009408801044340012243D5
:20350000440122430800094024220840D801001000400340181009400C4009402004224327
:20352000034A136823F00403136030BF704700BF10ED00E070B502F0DFFB02F07BF918B1D4
:20354000BDE8704002F0DCBB7F4802F057FA0225044648B1636823B19847854228BF0546A2
:20356000EDB22468002CF5D1FFF72AFC774B06461B6843B1764B1B681B1A022B38D4A3F246
:203580008F23002B3DDB01F0FDFFF8B102F002F80446FFF7D7FB241A002CD1DDFFF798FC00
:2035A00000EB4420831BA3F28F23002B31DA013D012DC5D8831B082B00F1B58006F58031F5
:2035C0000B1A11EA230138BF014604E0012D40F0AD8006F580310220FFF744FC5D4A1368D4
:2035E00023F00403136030BFBDE8704002F088BB002D00F0A38001F0C5FF0028A0D0002513
:20360000C4E7022DBFD101F0BDFF0028E1D00125BCE7012DCED0022D92D101462846FFF7E8
:2036200021FC494802F0EAF90446002870D00625A3680BB1022098472369246825EA030533
:20364000002CF5D1FFF7D0FC6B0764D425B1424B28461B689B69984700F07EF9002003F05B
:20366000B9FF3E493E4A0B683B4823F003030B601368016843F00F0313608B693920984741
:203680000023384A38491360184613600B6002F033FF062D43D0354C354D364E2B68236846
:2036A000326823F0030323605368032132489847294B1B689B6B98472B6803F039F80021E8
:2036C0002E4A336811602C485B6801219847012123682B4A43F00303236011602B6803F059
:2036E00059F803F043FFFFF747FBFFF77DFC164802F084F9044628B1E36803B19847246843
:20370000002CF9D102F0FCFABDE8704002F0F8BAFFF76AFC06250022194B1A6097E70220AB
:2037200002F08CFBB7E706F1080154E7022D7FF407AF711E2846FFF795FB72E701F022FFF1
:2037400000287FF423AFFBE6C8060020800224431820094010ED00E0B801001000100940C4
:20376000081009404010094020042243242208402C200940D801001000400340800104436F
:203780000C4009400146014802F03AB9C80600200146014802F05AB9C806002010B505489C
:2037A00002F028F9BDE81040034B20211B6803201B681847C806002084010010431C0ED02A
:2037C00010B5074B04461B684FF4C0421B68002198470022034B43EA84031A6010BD70471B
:2037E000B4010010001A444238B504460D4602F083FA01230549064AA3400B6042F82450AD
:2038000000B138BDBDE8384002F07ABAE0200240CC0600200021064B03F1800243F8041F45
:203820009342FBD1034B10201B681B69184700BFC8060020B0010010F8B500240126084B4A
:20384000084F1D681D6006FA04F32B42E0B203D057F8243003B198470134202CF3D1F8BD16
:20386000E0200240CC0600200022412300B585B002A8CDE9022303F08DFE042002F0CEFAC3
:20388000032810D00321042002F0A0FA042002F0C5FA0328FAD100901C234FF040520021BD
:2038A000044802F04BFA02A803F0CAFE05B05DF804FB00BF00A00C400022412300B583B0FE
:2038C0006846CDE9002303F065FE042002F0A6FA022808D00221042002F078FA042002F092
:2038E0009DFA0228FAD1684603F0AAFE03B05DF804FB00BF0022412300B583B06846CDE95B
:20390000002303F047FE012002F088FA012803D00121032002F05AFA684603F091FE03B04D
:203920005DF804FB0022412300B583B06846CDE9002303F02FFE012002F070FA012803D0A5
:20394000044B986B02F01CF9684603F079FE03B05DF804FB4800001010B54123002482B018
:203960006846CDE9004303F015FE0320214602F02DFA012002F052FA18B1044B986B02F08B
:20398000FFF8684603F05CFE02B010BD4800001008B503F095FE30B1044B5B88022B14BF08
:2039A0000220012008BD022008BD00BF4C07002030B583B003F084FE18B1134C6388022B19
:2039C00008D001A9104803F083FE012805D0002003B030BD012003B030BDFFF7F1F90A4CE4
:2039E00000F1400504E0FFF7EBF9401B002809DA60880228F7D1A0F10200B0FA80F040099D
:203A000003B030BD6088F6E74C07002010B5012488B002A840F60202182104F0BDF8114A8B
:203A20009DF81830126803F0F80391880E4A6FF3C303ADF81A1002A801A98DF818308DF833
:203A40001640079203F044FEA04202D0002008B010BD02A803F088FE001BB0FA80F0400948
:203A600008B010BDD4040020A804002008B5FFF7CDFF012801D0002008BDFFF799FFC0B29F
:203A800008BD00BFF8B50E4D00200E4F2C680E4E06E02379022B06D024682B68A34209D0CB
:203AA0002379032BF5D13B782BB124682B680120A342F5D1F8BD304601F0E6FE0120EBE709
:203AC000540A00202C1600206005002008B5B4290A46014628BFB422024806F027FB002011
:203AE00008BD00BF620A002030B583B004F04EF8044603F0E5FD08B903B030BD01A90A48E8
:203B000003F0E6FD0128F7D1FFF75AF900F1400504E0FFF755F9401B0028EDDA638803F40B
:203B20004063002BF5D0E7E7010001040B280BD00C2801D001207047042A07D131B10B4BF5
:203B400000201B680B607047082A01D0022070470029FBD0064A4B1E073112F8010903F8D0
:203B6000010F8B42F9D10020704700BFD40700207B07002010B542F20343002484B001A92A
:203B800002A8CDF80A40ADF80E40ADF8083003F09FFD20B19DF90A30803302D0204604B0CD
:203BA00010BD9DF80C0000F00C00A0F10400B0FA80F0400904B010BD30B583B003F080FD9A
:203BC00018B1184C6388022B05D0012003B030BDFFF7D0FF18B103F073FD0028F8D101A97E
:203BE000114803F075FDFFF7EBF800F1400507E06088022809D1FFF7E3F8401B002803DAF4
:203C000003F05EFD0028F3D1608842F202439842DBD042F20743C01AB0FA80F0400903B016
:203C200030BD00BF4C070020010001040B2810B502D00124204610BD082A13D191B1114A8A
:203C400001F1080313F8010D8B4202F8010BF9D103F036FD18B10C4B5B88022B05D0002462
:203C6000204610BD0224204610BDFFF7A5FF012814BF03240024FFF79BFE012818BF032421
:203C8000D8E700BF740700204C07002030B585B003F016FDF0B1114B5B88022B1AD14FF041
:203CA0000002002442F2034563F301028DF80C209DF80C0000F00303022B0CD101A902A863
:203CC000CDF80A40ADF80E40ADF8085003F000FD0028EDD1FF2005B030BD00BF4C0700201C
:203CE0002DE97848044603F0EBFC20B1184B5B88022B02D00020BDE8788801F0FDFF0546B7
:203D00003CB1144A144B12681A609DB10120BDE87888104B4FF0000C1E6800230E4C16F141
:203D2000804022684CF10001994208BF904205D32660EAE701F0E4FF0120DCE7FFF740F872
:203D4000064A07491368086001331360F0E700BF4C07002004300440DC070020E0070020AE
:203D6000D807002008B503F06DFF012806D003F0A7FC18B1094B5B88022B01D0002008BDB0
:203D800003F09EFC18B1FFF7F5FE0028F6D1FFF77DFFFF28F2D0C0F3801008BD4C0700201F
:203DA00008B502E0FFF7E6FE18B103F089FC0028F8D1FFF701FF03F0D7FDFFF7CDFD0022B9
:203DC0000C4B0D4819794280022908BF1A710B4B1A79022A04BF00221A71094B1A79022ACE
:203DE00004BF00221A71074B1A79022A04BF00221A7108BD140800204C070020A408002092
:203E000034090020C409002008B503F01BFF012801D0FFF7C5FF012008BD00BFF8B503F095
:203E200011FF01282ED0FFF765FD03F049FC18B11D4B5B88022B25D0012588241B4A1C48EA
:203E4000577946791B491C4B65F3830765F38306577146714F795E7965F3830765F3830664
:203E600010600160C480D480CC804F710B601A60DC805E71FFF756FD03F016FEA84203D0B0
:203E80000020F8BD0120F8BD0C4B1878003018BF012003F023FEFFF7B9FD0128F0D1BDE819
:203EA000F840FFF785BD00BF4C07002014080020A408002034090020C40900202C160020AC
:203EC00030B585B0072800F2A980DFE800F0101F2A2D305A5F04524C217703F0F1FB10B17E
:203EE0006388022B79D00024204605B030BD012900F08480019100296BD103F0A3FE012863
:203F0000F1D0FFF74DFF01990C46EDE7A1F10B030F2B5ED8424CC9B2A37B8B42E3D0A17313
:203F2000DBE73F4C6186D8E73D4C2186D5E731F007024ED13A4CC1F34005237E394861F364
:203F40000003DBB243F0020365F38203657E03F0870362F3C71362F3C7150278C1F380014D
:203F60009142657623760170B7D1228B2E4B03A918465A8003F0ACFB002814BF0024032417
:203F8000B2E731F0010324D1CCB2ADE701F115031A2B1ED86FF014030C24244A01E052F8D8
:203FA0003430994230DD14F1FF34F8D203F088FB002898D010221D4B02A903EBC404A38887
:203FC00003A8ADF80E30ADF80C20002403F080FB8AE70224204605B030BDFFF7EDFD012848
:203FE00014BF0324002403F06DFD012812D0FFF7DFFC01283FF478AF032475E7FFF70EFF61
:2040000001283FF470AFF7E7084B094A03EBC4031360CBE70020FFF763FEE8E7012463E712
:204020004C0700202C160020CC07002068A50000D4040020002900F0A380F0B50C4685B04B
:20404000102800F29F80DFE800F00E1B20252A41444A5081879D9D8C909409000523002066
:204060000B6005B0F0BD03F02BFB30B1524B5888A0F10200B0FA80F0400920600020F0E78F
:204080004D4B00209B7B0B60EBE74B4B00205B8E0B60E6E7484B00201B8E0B60E1E700238C
:2040A000454A0B60137E03F001030B60127E520744BF43F002030B60404B1B78002B5DD00E
:2040C0000B68002043F004030B60CAE700200860C7E73B4B00201B681B680B60C1E7364B81
:2040E000002093F91C300B60BBE703F0E9FA00284AD0314B5B88022B46D100274FF0000397
:204100000222002562F38303CDE9025542F203468DF80C300BE001A902A8CDF80A50ADF82D
:204120000E50ADF8086003F0D3FA002837D09DF80C3003F00C03082BEDD0002F34D19DF998
:204140000A302360803319D103208AE71D4B00201B785BB20B6084E71B4B00201B780B60EF
:204160007FE70B2300200B607BE71A2300200B6077E76FF0140300200B6072E7002070E7C7
:204180000220704701206CE7FFF748FE012808BF0746B3D06FF07F030320236061E7802364
:2041A0008DF80A30002FF5D003F04CFD0128C6D0FFF7F6FDC3E700BF4C0700202C1600202A
:2041C000D40400202B1600202A16002070B588B0064603F075FA002848D03A4B5B88022B46
:2041E00044D10025FEF7ECFD6FF01F04241A07E0FFF7C0FC012843D1FEF7E2FDC44241D521
:2042000003F05EFA0028F3D102A842F60142182103F0C2FC00222C4B2C4CF6B28DF81760A3
:204220002178069304929DF81430891A18BF012162F3030301208DF8143003F087FC02A8DC
:2042400001A903F045FA30B3207801E0002836D0BDF80A3003F44063002BF7D0BDF80A407E
:20426000A4B2B4F5105418BF012416E0FFF7D6FD012803D00124204608B070BD0546B1E7D1
:204280000028C1D01DB103F0DDFC012813D10224204608B070BD20780124003018BF012068
:2042A00003F068FC002DE6D003F0CCFC0128E2D0FFF776FDDFE7FFF773FD0224E8E7FFF7AE
:2042C0002FF9C1E74C070020620A00202C16002010B50C46B42C2246014628BFB4220448FE
:2042E00005F024FF2046BDE81040FFF76FBF00BF620A002010B503F0A5FC01281CD003F07B
:20430000DFF918B11B4B5B88022B1BD0FFF786FD012804460AD1FFF7B9FCFF2822D103F01C
:2043200091FC012809D0FFF73BFD06E003F08AFC012801D0FFF734FD0124204610BDFFF7F2
:2043400019FC18B103F0BCF90028F8D1FFF79EFCFF28F1D000F0030010F1FF3418BF01244B
:20436000204610BD00F0030010F1FF3418BF0124D5E700BF4C0700202DE9F047594E80463F
:204380000F463568FEF71CFD574C241A03E0FEF717FDC44208D52B79022BF8D0032B06D0D0
:2043A00000242046BDE8F0872B79032BF8D1D6F8009099F80820032A06D999F80850EDB211
:2043C000A5F10804BC420ADD0024D9F8003089F8084089F8044033602046BDE8F087404608
:2043E000224609F1090105F0A1FEEB1C19F803303E4F5BB23B70043519F805203C4D02F043
:204400003F0209EB0403D3F80D802A7003F058F918B1384B5B88022B60D0FFF7FFFC4FF06E
:20442000010903F04DF978B1324B5B88022B0BD10020FFF755FCB9F1000F05D003F002FCC1
:20444000012801D0FFF7ACFC2B4BB8F1404FD3F8009036D86FF4BF704FF0FF3100224B46F9
:20446000DFF8A4C0DCF800C0B0EB0C0961EBEC7A19EB08004AF1000110EB020841EB030986
:204480004FEA092143F60952002341EA18614FEA082005F0C3FC194B194A1B7810604BB97B
:2044A0003978042049B289B202F04EFB2978032002F04AFB0022336819681A7231601A71D5
:2044C0006FE7FEF77DFC0F4B1B68C3F17E4303F57203C34248BF09F1FF39BBE74FF0000931
:2044E0009FE700BF5C0A0020FAFEFFFF2B1600202A1600204C070020E00700202C1600205E
:20450000D4070020D8070020D814002010B503F0D7F818B1144B5B88022B1DD0FFF77EFC79
:20452000012811D10020FFF7DBFB044603F08AFB012816D144B1BDE8104000230B4A4FF40D
:2045400087310B4800F030BF0023BDE81040074A8021074800F028BF0020FFF7C1FB044625
:20456000E8E7FFF71DFCE5E74C0700200D450000E40700202DE9F0470025354F3548FFF758
:2045800001F903F06FFA38469022294605F044FE90222946304805F03FFE902229462F488C
:2045A0002F4C05F039FE902229462E4805F034FE2D4E2E4B29467E22A01C4FF0070A4FF048
:2045C00002091F60C6E9007505F026FEA623FF2101224FF00B0E4FF0B90C42F601086F27D5
:2045E00042F202002661224E84F8199084F818A066612377268B1F4BA4F8008084F80EE033
:2046000084F80FC0E776A1765E801971627384F837201880FFF702FC012803D02C4620466B
:20462000BDE8F0870446144803F0C4FA2046FFF757FB2B46114A4FF48731114800F0B4FE97
:204640002946104801F066F82046BDE8F08700BF1408002094040020A408002034090020E6
:204660004C070020C4090020540A00205C0A002004080020CC07002060A500000D45000060
:20468000E40700206005002008B500F08BF880B208BD00BF00F014B938B50C4D04202B68EA
:2046A0005B6998472B6804205B6B984701280446F8D12B6840F20140DB699847044B054AF8
:2046C0001C6013689B07FCD538BD00BFB80100102820086028200840034B1B68002B14BFE4
:2046E00001200220704700BF180B0020F8B503880446002B2ED0B3F5847F05D1184B1B789C
:204700008B4205D00120F8BD002323800320F8BD144D2B6873B1144B144A1B6812685B68EE
:20472000022017460026984730182B6847F1000198472E600E4B40F201401B689B6A984741
:2047400001210C4B0C4A196013689B07FCD50B48FFF71EF84FF4847323800120F8BD00BF52
:2047600077050020180B0020CC01001004800240B80100102820086028200840D8040020B2
:2047800008B5064B04201B685B6B9847012809BF034B00201868C0F3400008BDB80100105F
:2047A0003C2008402DE9F041284B1B68D3B128480023024612F8011B49B90133042BF9D164
:2047C00000274FF0000838464146BDE8F0810021204AC15402EBC303D3E9007838464146C4
:2047E000BDE8F081FFF7CCFF00282BD01A4A1B4B12681A420ED11A4A0121134611601A686E
:20480000002AFCD110464FF4807102F001F80122144B1A6001F070FA06460F4A1368DB07D3
:20482000FCD5114B114A1B6812685B680220154600249847271845F10008002EC3D101F080
:204840005FFAC0E7FFF728FFD0E700BF180B00201C0B002088050020088002400100008043
:20486000F09F0240A8025042CC0100100480024038B500240D4D0E4A2C6013680D4923F055
:204880000103096813604B6931209847224620464FF4807101F0BCFF0122074B2A6019780E
:2048A0002246BDE83840054800F0CEBFA80250420C800240B001001077050020EC04002032
:2048C00010B5074C2378802B00D010BD00F01AFF002120700348BDE8104000F01BBF00BF5A
:2048E00077050020EC0400200AB90020704708B508461146FEF7A6FB002008BD0FB400B51D
:2049000083B004AB53F8041B04481A46019300F027F803B05DF804EB04B07047FC0400207A
:20492000102970B50C46054613D90C4E01E0102C08D92B681022314668689847103C0028D9
:20494000F5D070BD2246D5E90030BDE87040034918470029F6D1084670BD00BFECA5000054
:204960002DE9F04F8246894690464FF0000B8FB099F80030002B00F0D980252B08BF4D460D
:204980001BD04C4603E0252B00F0D4802C466378651C002BF7D14D4500F0C880DAE90030A5
:2049A000A5EB0906494632469847002840F04F816378B344002B00F0B9806A7805F1010942
:2049C000002A00F0B3800021A2F12003102B1BD8DFE803F0171A1A141A1A1A1A1A1A1A11A5
:2049E0001A0E1A1A090041F0100119F8012FEBE741F00101F9E741F00601F6E741F008019B
:204A0000F3E741F00201F0E7A2F13103082B40F295802A2A00F0C18000242E2A00F09D8062
:204A20004FF0FF336C2A00F0A580682A00F0AB80782A00F29B81DFE812F079009901990187
:204A40009901990199019901990199019901990199019901990199019901990199019901B6
:204A6000990199019901990199019901990199019901990199019901990199019901990196
:204A8000990199016F019901990199019901990199019901990199019901990199019901A0
:204AA000990199019901990199019901990199019901990199019901990199016801990187
:204AC0009901990161015A01530199019901990199019901990199019901990199019901F3
:204AE000990199019901990199014C019901990199019901990199019901990145019901B7
:204B00003E01370130010F01DB00990137019901990199019901D20092018B0199019901A3
:204B2000840199017D0199019901760158460FB0BDE8F08F4D457FF431AF3EE7002404EB8F
:204B4000840402EB440419F8012F303CA2F13003092BF4D92E2A7FF463AF99F8012009F19B
:204B60000100A2F13003092B24D92A2A00F0AF81814655E799F801206C2A29D009F1010981
:204B800041F0600154E799F80120682A00F0988109F1010941F040014AE7D8F8004099F8B3
:204BA0000120002C08F10408B8BF41F0010109F1010932E7002303EB830302EB430310F80A
:204BC000012F303BA2F13005092DF4D9814629E799F8022041F0800109F1020928E709F125
:204BE0000109D8F8003008F10408C3F800B0BFE601F4E06242F4007241F48137B2F5806F34
:204C000009F1010933D040F2B580B2F5C06F00F04A81B2F5E06FE4D0B2F5A06F7FF4A8AE6C
:204C2000012C38BF0124D8F80030013C8DF82030FB0708F1040840F10883DAF80030012231
:204C400008A9DAF804009847002800F0F8814FF0FF300FB0BDE8F08F01F4E06242F400722D
:204C6000B2F5806F41F4007709F10109CBD1D8F8006008F10408002E00F0DE8135782DB115
:204C8000354615F8012F002AFBD1AD1B002BC0F2A8809D4228BF1D46A3E001F4E06242F480
:204CA000007241F40247A9E701F4E06242F4807241F42457A2E701F4E06242F4A06241F438
:204CC000A0679BE701F4E06242F4007241F4C13794E701F4E06242F4807241F4B2478DE7C3
:204CE00001F4E06242F4007241F4A13786E701F4E06242F4007241F484477FE701F4E062DF
:204D000042F4007241F4424778E701F4E06242F4007241F4E13771E701F4E06242F4C062BB
:204D200041F4C0676AE701F4E06242F4807241F4C85763E701F4E06242F4807241F41067BE
:204D40005CE701F4E06242F4806241F4806755E701F4E06242F4407241F440774EE701F434
:204D6000E06242F4807241F4885747E70F4601F4E06243E7B2F5807F4ED0B2F5407F7FF434
:204D8000F7ADBC4BD8F8001017F4804FBA4E08F1040818BF1E460A4600230DF1330E00298B
:204DA00000F09E807146100940EA03704FEA131C02F00F0563460246705D01F8010D52EA09
:204DC0000300F0D1BEEB010500F08B80033578203022232301F8010C01F8022C01F8033C98
:204DE000CE1EAC428CBF641B0024FA0740F1F0813146DAF800302A46DAF804009847002882
:204E00007FF425AF21465046AB44FFF789FD00287FF41DAFA344ABE5002BB4BF012327F02C
:204E2000100717F400520393069207F0E0035ED0402B00F0F18100F20D81002B00F0B68129
:204E4000202B40F0EF8198F9002008F10408D317002A73F10001C0F2B381CDE90423002352
:204E6000079307F4C053B3F5805F59D10DF136030193DDE90423134300F0BF81DDE90423AE
:204E8000019DD00840EA4370DE0802F0070133460246303105F8011D52EA0301F1D1019B04
:204EA0005B1B019348E0DAF8003001227349DAF80400984700287FF4CAAE0BF1010B57E5D3
:204EC00099F8022041F0200109F10209B0E599F80220D8F8003009F1020908F10408A1E5F0
:204EE00071463023042501F8013C01396FE7402B00F09B8100F2CE80002B00F04C81202BCF
:204F000040F083810023069A08F10408079218F8042CCDE9042307F4C053B3F5805FA5D0D5
:204F2000B3F5C05F00F00781B3F5006F00F0DB8000230DF13605019341F608030199039869
:204F40003B40814241F20802C0F0B980934200F0178100220391029241F60802934240F000
:204F6000AB80DDE90423134300F0A680444A17F4804F444B08BF134602260493069B7BB10A
:204F8000079B002B40F0F88007F00603022B00F038813D4A062B049B04BF13460126049395
:204FA000039B33449C428CBFE41A002417F00103039306D1F90640F1E680029A22441C461F
:204FC0000292DAE900303EB104993246984700287FF43DAEDAE90030029F019A102F93449C
:204FE00040F22D81102229499847103F00287FF42EAEDAE90030102FF4D83A4623499847BF
:2050000000287FF424AEDAE90030019A2946B344984700287FF41BAE029B5B449B46039B31
:20502000002B3FF4F7AE21465046FFF779FC00287FF40DAEA3449BE4154E062526E6214648
:2050400050460BF1010BFFF76BFC00287FF4FFADA3448DE4602B00F0A980802B40F0E280D5
:2050600008F1070323F0070303F10808D3E90023EEE600BF0CA6000020A6000050A600002C
:2050800038A6000034A6000044A60000FCA5000048A60000602B7ED0802B40F0B68008F1FC
:2050A000070323F0070303F10808D3E90023CDE90423069B07932EE7002604965EE7039918
:2050C00001989342A1EB000102917FF445AF00290B4608BF012302930026DDE9013213446B
:2050E000CDE903364AE70DF13605DDE9042352EA0301019500F08180CDF808B01646BB46C9
:205100001F46304639460A22002304F087FE30323046394605F8012D00230A2204F07EFE2C
:2051200006460F4656EA0703EBD15F46DDE9013B5B1B019300E7504B17F4804F4F4E0DF120
:20514000360518BF1E46DDE9042352EA0301019553D0110941EA03714FEA131C02F00F00D1
:2051600063460A46315C05F8011D52EA0301F0D1019B5B1B0193DFE6414B012604930FE7E2
:2051800001230293A8E721465046FFF7C9FB00283FF417AF5BE5D8F8003000221946069B8D
:2051A00008F10408CDE904120793B4E6D8F8002008F10408D317002A73F10001BFF64DAECC
:2051C000524263EB4303CDE9042301230793A2E621465046FFF7A4FB00287FF438AD3146FB
:2051E000DAF800302A46DAF80400984700287FF42EADAB44A344FFF7BBBB0023019D01937B
:205200009AE6204B01260493CAE60023002207930023CDE904237EE6B8F9002008F104081C
:20522000D31715E60022002317E60023069A08F10408079238F8042CCDE904236BE6029ABC
:20524000002A3FF4E2AE1746D7E621465046FFF767FB00287FF4FBAC0122DAF8003008A9DA
:20526000DAF804009344984700287FF4F0ACA344A344FFF77DBB00BF0CA6000020A6000038
:205280003CA6000040A6000010B50446006830B1002100F03FFA54F8040F0028F8D110BD87
:2052A000F0B5038883B005465BB14A2B04D188291BD0012003B0F0BD002303202B8003B029
:2052C000F0BD194800F09AFB044630B1A168201D00F04EF92468002CF8D10122134B1A7007
:2052E0004A2301202B8003B0F0BD0F48019200F085FB04460028F3D0019A031D9A4205D01A
:205300002468231D002CEBD09A42F9D1084E2146054800F09BFBD4E90523376832600BB1D2
:20532000E06998473760DBE7200B00202D160020AC0C002010B50024054B06481C7000F063
:2053400059FB2146BDE81040034800F0E3B900BF2D160020200B00200405002070B50446C1
:205360000D48049D0078C4E90623656130B9A1600A482146BDE8704000F042BB084D094B95
:205380002E68201D2B6000F0F3F82E602146BDE87040024800F034BB2D160020200B0020B3
:2053A000AC0C00200405002010B5044C82B024680094FFF7D3FF02B010BD00BFAC0C0020A7
:2053C00010B50A4B04461B783BB9C0E903332146BDE81040064800F039BB043000F0E4F875
:2053E0002146BDE81040024800F030BB2D160020200B0020704700BF10B5FDF7A3FC0B4B5A
:205400001B689A68D3E900142144091A4AB1D2E9003423441B1A9268994228BF1946002AE4
:20542000F5D1034B0844186010BD00BF280B0020240B00202DE9F8430388054673B3592B95
:2054400027D1872930D082291ED14FF000092D4FDFF8B8803C68BCB1002603E0A3682646A6
:2054600093B11C46204600F053FA0028F6D022468821E06800F0E8F930B3404600F004FA74
:20548000A3682646002BECD1592301202B80BDE8F88300232B800320BDE8F883194A0120B0
:2054A000136059232B80F2E7164F39680029EBD0CB689A4203D014E0CB68934210D18968DF
:2054C0000029F9D13960DFE7E060A368BEB1B3603B68C4F808907BB1FFF78EFF3C68BAE7C2
:2054E00039608B68002BCFD0D3E90204944214BF194688600346F5E7034A1360C4E73B6079
:20550000E7E700BF280B0020240B00201405002010B50446104800F0B7F91049E3680A6806
:205520004BB142B194420FD0134601E09C420BD09B68002BFAD10A4BA2601B680C60E36052
:20554000BDE81040FFF758BF054B1B68E360BDE81040FFF751BF00BF14050020280B0020ED
:20556000AC0C0020014800F08FB900BF1405002010B5044600F0C4F92046BDE81040FFF7CD
:20558000C7BF00BF024B1868003018BF01207047280B0020024B186808B1024B18687047BD
:2055A000280B0020240B002010B5114B04461A68824213D072B19368984208BF134605D0C8
:2055C00043B19A68A24201D01346F9E7A2689A60FFF712FF0023C4E9023310BD82681A60A6
:2055E000002AF5D1034B1A600023C4E9023310BD280B0020240B00202DE9F843234F3D6817
:20560000854208D0002D38D02B4601E0002B34D01B689842FAD180B31D4E837B8946044658
:20562000D6F80080D3B10023837365B1AC4207D0AB7BDB0704D522468721284600F02AF833
:205640002D68002DF2D1A3683BB14C4505D034600022832104F10C0098473D68A54212D0C0
:205660004DB12B68A3420AD02BB11A68A24207D01346002BF9D1C6F80080BDE8F8832B46A4
:2056800022681A60F7E72B683B60F4E7B00C0020AC0C002070B586687EB1044602200A4B68
:2056A000A0731C6004F10C000D46B0470238012804D9832D02D00123A37370BD214620461A
:2056C000BDE87040FFF798BFAC0C0020002238B50A490B4B0C681A707CB1012501E02468DA
:2056E0005CB1E37B002BFAD0E581204600228221FFF7D0FF2468002CF3D138BDB00C0020A7
:2057000031160020024B1878421C1A70704700BF2F16002070B50F4D2C68844206D034B1EC
:20572000234600E01BB11B689842FBD170BD0028FCD003460A46012000211C60064C987356
:2057400026689981184681212B60FFF7A3FF266070BD00BFB00C0020AC0C002030B48A25C5
:205760000023064A064815700649074A074C03700B601360237030BC704700BF2F16002045
:2057800030160020B00C0020AC0C00202E1600202DE9F041224D2B780BB1FFF797FF214E7B
:2057A0003378BBB12048214F0278013B02EB4201890001327C1802F01F020270A068DBB2AA
:2057C00033707F5CD4F8048040B1812F1DD0827BD2071CD428781844BDE8F081144A1468BB
:2057E0002CB9F7E7A37BD90709D424689CB12B78002BF7D0FFF76AFFA37BD907F5D54246EE
:2058000039462046FFF746FFEFE70123837342463946FFF73FFF337828781844BDE8F08180
:2058200031160020301600202E1600202C0B0020B00C0020024A034B10781B78184470473C
:20584000301600203116002070B40C4D2C78202C11D00B4B0B4E1B78234403F01F0303EB81
:2058600043039B0001342C70F418C4E90120F154002070BC7047012070BC704730160020EA
:205880002E1600202C0B002018B1837B013B012B00D970470123024AC3731370704700BFEF
:2058A00031160020FDF786BA38B50A4C049D22682AB1C0E9013501602060002038BD0246E7
:2058C000C0E90135016008462260FDF775FA002038BD00BFB40C002010B5084C206858B1F7
:2058E000D0E90131002222609847236823B1BDE810401868FDF760BA10BD00BFB40C0020EC
:2059000010B541600446FDF71DFA206010BD00BF10B50446FDF716FAD4E90032C3F1010306
:20592000184482422CBF0020012010BDF8B504880746672C0BD0792C04D0D4B100233B807E
:205940000320F8BD852936D11C4E002333601C4D1A4C05E00A282646236811D07E2B25DD31
:20596000284600F09BF8431CF4D167233B800120F8BDFFF7C7FE134A104B10701C60E6E7BB
:205980000025114A0F49D5540978013328462360FFF75AFF0D4B2A4618688521FFF754FFDA
:2059A0000028D2D179233B800120F8BD06495A1CC8542260D4E70120F8BD00BF380D0020D7
:2059C0003C0D002091160020B80C0020AC0C002008B505490548802200F058F8BDE80840B4
:2059E00000210348FFF796BE440D00203C0D00202405002000230360704700BF00687047B3
:205A000010B404685CB1A1421CD023680BB906E01346994212D01A681C46002AF8D1002335
:205A20000B6002680AB906E01A461368002BFBD1116010BC7047016010BC70470B6814B106
:205A40002360ECE70B680360E9E700BF10B404685CB18C4211D023680BB906E013468B4244
:205A60001A6804D01C46002AF8D110BC704734B1226000221A6010BC70472346226802601D
:205A8000F7E700BF00B10068704700BF0023013A0160027143718371704700BF10B48179CC
:205AA00042790479521A224207D003464A1C00682240405C9A7110BC70474FF0FF30FAE715
:205AC000F8B506460B480D461746FFF797FF50B10446A3680BB1284698472046FFF7D2FFB2
:205AE00004460028F5D13A4629463046BDE8F84002F0E6B8C40D002038B502F0E7F90546A1
:205B00000A48FFF77BFF48B10446636803B198472046FFF7B7FF04460028F6D125B1284693
:205B2000BDE8384002F0C6B838BD00BFC40D002010B501F033F800F09BFF02F0C7F802F025
:205B4000C3F9BDE810404FF4E1234FF4F0528021022002F069B900BF10B5044602F0C4F974
:205B600000B910BD00F0A0FE034B21469B6803489847012010BD00BFE8A60000C15A0000D9
:205B800070B5064600F0B8F80546064C2368002BFCD0B0470123236005B170BDBDE87040FF
:205BA00000F0AEB800800C4010B4064A064C1368206811688B42FAD1000C40EA034010BC04
:205BC000704700BF082009400C200940024B186800F00E00704700BFD42108404BF69A12FE
:205BE000104B1868C0F30F30904211D04BF6BE1398420BD04BF64133984210D04BF620335B
:205C0000984214BF4FF0FF3002207047012070471B681B0F0B2B0CBF0420002070470320EC
:205C2000704700BF1813005010B5124B1968C1F30334FFF7D3FFD0B9012341F21222A34026
:205C4000134208D11A040CD413F0040F14BF02204FF0FF3010BD11F4000F0CBF04200720A8
:205C600010BD11F0807F0CBF0520062010BD4FF0FF3010BD9412005010B5184B184A1C6835
:205C80001168240FC9B2802928BF0021FFF7A6FF042819D8DFE800F00D07030304009CB94A
:205CA0000A3148B210BD6CB1022C0DD1143148B210BD631E072B07D8DFE803F004060C0645
:205CC00006060E090A2010BD4FF0FF3010BD163148B210BD142010BD152010BD18130050E3
:205CE000A010005008B5FFF779FF00B1FEE7FFF7C3FF1528FADD08BDEFF3108072B6704701
:205D0000EFF3108062B6704701387FF4FDAF7047F8B506460D461746FFF7EEFF064C2368CA
:205D2000002BFCD001237751236000B1F8BDBDE8F840FFF7E5BF00BF00800C4070B50F2B36
:205D4000BDF8105088BF103B00EB410188BF120C05FA03F594BF01F5007601F5017645EAB8
:205D60000245FFF7C9FF064C2368002BFCD001233560236000B170BDBDE87040FFF7C0BF66
:205D800000800C400F2B2DE9F0411E46174600EB010804D9A3F1100608F10208170CFFF75E
:205DA000ABFF094D2C68002CFCD00123B8F800402B60A4B208B9FFF7A3FF04EA07003041A3
:205DC00080B2BDE8F08100BF00800C4030B50D46C10783B0044616D4A2070BD4630707D5BB
:205DE000ADB2009502230C2200210B48FFF7A6FF03B030BDABB20093022201230021064806
:205E0000FFF79CFFEAE70023AAB20092194601220148FFF793FFDFE700A00C4008B5042821
:205E200007BF1D234FF0C0421C234FF0805234210148FFF7A7FF08BD00A00C4001280AD0DD
:205E400018B10122074B1A607047074A136823F0050313607047044A136843F0050313604B
:205E6000704700BF8001044300000940012138B505462A4B2A4A19601368002BFCD0C0218C
:205E8000284A294B11601B689B073FD4274BA2F57F321B68A2F5D572C3F3034343F0F00336
:205EA00013700021224A234B11601C68204600F0BDF82146284600F021FA40F20E221E4BB9
:205EC0001B689BB2934212D81C4A13681268C3F30363C2F30342EBB9911F012991BF702262
:205EE000023202F00F021201154913430B70204600F0D6F8134B02201B68DB689847402080
:205F000001220849104B08601A6038BD72220F4B1A70C6E7013BDBB2DEE700BF1010094000
:205F20009402224300600C40B03F0050AC3F005040100940B43F005014130050BC120050CF
:205F400002600840A0010010940460425662084038B51D4B00251C68631C08BF0024FFF74E
:205F6000C1FE012319481A491A4A05600B60136000F08CFA184B1B6823B1184B20461B6857
:205F8000FFF774FF0022164B16491A600B68164A23F07F6323F4702343F09C7343F480339E
:205FA0000B601368C3F30133012B08D1136823F0407323F4403343F40031116013600B4AA0
:205FC0001368002BFCD138BD1C130050840460425C600C40082204438001284300012043E7
:205FE0008C21084048200340040009400C006842064B1868C20C830D02F4407203F01C0315
:206000001343C0F381501843704700BF98130050044B05481B681A0302F47C13104018436E
:20602000704700BF9813005000F0C0FF6FF00902154B16491B68C3F30463152B88BF203B95
:2060400003EB207301339342B8BF1346152BA8BF152303F01F030E4A43F4F8530B80136812
:206060000C4913F002030ABF0B4A40F0406013606FEAD0636FEA9060084A03F0010300F054
:2060800001000B6010607047B81200506E620840000009400000204394042A43080020431F
:2060A00038B5C0F38143012B2CD0022B2ED1524B1B681B0702D44022504B1A604FF40071E5
:2060C0004F4A504B11601B68C0F38150C3F3C14343F03003012882F8883037D020D3022875
:2060E00019D103210420FFF771FE47F61800464B464C1B68464903F03F03464A237008809F
:20610000136838BD3F4B1B689A034BD54FF00042414B1A60CBE702210420FFF757FEE4E7AF
:206120000121042043F2BD75FFF750FE862401213A4A3B483B4B15603B4A046019601368C3
:20614000002BFCD00022374B1A60CEE7FFF766FE044601460420FFF739FE0420FFF75EFEC3
:20616000A042FAD10121314B2C4A18682C4C85B22C4B1560C0F307452B4A25601960136856
:20618000002BFCD000212A4B264A1B6811601B684FF06022000E072198474FF480621E4B27
:2061A0001A609EE74FF480411B4A224D11602C68C3F3033224F08F04590A224301F0800137
:2061C0000A431D4C2A602168C3F3032221F00F010A431A4922600A6803F0800422F0E702E4
:2061E000224303F06004224303F00604224303F0010313430B605AE7B03F005068A00C4090
:2062000080A00C408C1300506C1300500BB00C4070B00C402C20094040A00C403C600C4038
:2062200040600C4044600C4084088C43A83F0050B40100100C6008400B6008400A60084012
:20624000174B82031B68C3F38361C3F38F230DD440F30722002A0CDA5B0805D149080ABF32
:2062600001234FF6FF7319460132F5D143EA01407047FBD05B0043F00103B3F5803F4FEAC9
:20628000410007D340F001010F2986BF4FF6FF730F210123013AEDD143EA0140704700BF4C
:2062A0005013005030B4124A124B11681B68C1F30354DB07C1F303420BD40F4B1D6845F3B6
:2062C000032345F3033523442A4483F3040482F304021304212843EA04538AB243EA020308
:2062E00084BF01F080410B43184630BC704700BF78130050B03F0050AC3F005030B5044617
:2063000083B00846FFF79CFF182102465248FFF7FFFC524A002311681268C1F3870112025D
:2063200002F440720A4300922C2140F2FF324A48FFF704FD4A4B1C211A684748C2F30D02F6
:20634000FFF7E6FC474B14211A68434802F0FC32FFF7DEFC444B10211A683F4822F07F4205
:2063600022F44032FFF7D4FC2046FFF79BFF0C2102463948FFF7CCFC212C20D8222111226A
:206380003A4B1F2C19701A704DD80022282132486025FFF7BDFC80244FF47C41344A35483D
:2063A000354B1570354A0470198008212A48FFF7AFFC4FF48002324B1A6003B030BD314C37
:2063C0002A4A2368C3F300735B0043F0200313702368C3F3407343F010031370FFF708FEA8
:2063E000282102461C48FFF793FC274B204A1B682049C3F301535B0043F060031370236852
:20640000C3F3C063DB0063F07F03DBB20B702368C3F345539B0043F47C43A2F89030FFF731
:20642000F7FD0246C1E7FFF7E3FD282102460A48FFF76EFC80244FF47C41134B0C4D1B6881
:206440000C48C3F301535B000B4A43F060032B7004701180E3E700BF00A00C4050130050D0
:206460007C130050741300507013005049A10C404CA10C4041A10C40DCA10C4000803F402E
:2064800040A00C408C13005098130050164A1368002BFCD11549164A0B68126823F0005302
:2064A000520723F0070319D410B4124A43F00050146840F00400A4070DD043F0005343F0E5
:2064C00007030B60136803F00303032BFAD1074B186010BC7047086010BC704743F000531C
:2064E00043F005030B6070470C00684204400340B03F0050004003407D4B1B689B0706D578
:2065000008207C497C4B7D4A88711A6070472DE9F04F83B0054601F029FD794B1B681A1774
:206520009F0202F1010208D4C0F13E01C9100829A8BF08218A42B8BF0A466FF009067149A3
:20654000714F0C687149C4F304640968152C88BF203CC1F304412244152988BF2039B242A8
:20656000B8BF3246152AA8BF152202F01F0444F4F854674E3C80366816F0030418BF01249E
:20658000760748BF44F002040DB144F00404594E96F90750451B042D24DCB579A54221D11E
:2065A000B2885C491E2A09681346316040F28180B2F5007F28BF0022C0F093805B08B3F529
:2065C000007F02F10102F9D253490F3B1B09114341EAC30300214848504A0360116003B05A
:2065E000BDE8F08FB0F10F0504F0040904F0020804F0010E2CD405EB05154FEA252BBBF181
:20660000060F019560D9DFF81CA14FF4E06B5746DFF814C1DCF800C03F68A7EB0C075FFAF2
:2066200087FCB9F1000F02D0C7F30725AC44B8F1000F02D0C7F30745AC44019DA5EB0B05B8
:20664000BEF1000F39D105FB0CF580352D0A02E00025DFF8D8A0DAF800C05FFA8CF7B9F117
:20666000000F02D0CCF307294F44B8F1000F02D0CCF307484744BEF1000F01D007EB1C6790
:206680008A1A012AB8BF0122342101FB02F1DAB202FB01F23D44B2FBF5F24FF6FF739A4229
:2066A00028BF1A4600F3070092B2F071B471B28077E71F221A4BB2808CE70CEB176705FB7F
:2066C00007F580352D0AC6E70BF10107DFF85CA0BF00A7F1040CD44457444FEA0B2BE2469D
:2066E00098E7A2F10F030C4A1B0942EAC30371E700000940C80D002030100940FDFDA4004D
:20670000B43F0050B81200506E6208403C110050242208400820094000E7A48034100940D0
:2067200008E7A480B8130050B41300509C13005038B5154B1D68ACB204B938BD01F016FC30
:20674000124991F90730834205DD6FF07F039842B8BF1846C8718888A04213D80C4B0D6804
:206760001B68221A02335B1B1F2B28BF1F234FF6FF755B0822FA03F31C18AC4228BF2C4693
:206780008C8038BD8D8038BD34100940C80D002008200940194B1B6813B3194A126802F087
:2067A0004061B1F1406F1BD016490868800717D415480068800713D410B414480C6800688C
:2067C00014F0050FC0F3035000F11C004FEA001007D0834202D224F005040C6010BC7047C9
:2067E00070478342FAD9110158BF44F001045301044B58BF44F004041C60EFE728500940DF
:20680000B43F005000000940B03F0050AC3F005030B44FF6FF350A4C12022368C0F38710D6
:2068200002F47062090A1D400904024305480A4323F48063294323602160026030BC7047C5
:2068400014800240188002400B880380704700BF02780B789A4203D0012080F00100704707
:2068600042784B789A42F7D1002080F001007047084B10B51B689847074B5B689847074BEF
:206880005B689847064B5B689847BDE81040054B5B68184728A50000BCA60000E8A600003F
:2068A00098A6000080A6000070B40D4E3188A1B10C4B1D887DB100231A460B480B4C00781B
:2068C0000144C9B2214404440133885C1BB2AB42A0541A46F8DB0023338070BC704700BFDA
:2068E0001E1600201C16002032160020D00D00202DE9F0410E4A0F4B14781E88A519802DF7
:2069000003DD00252846BDE8F0810746DFF82C802246414603F00AFC074B3246197838198A
